:10000000F8FF0020110400003752000037520000B2
:1000100037520000375200003752000037520000BC
:1000200037520000375200003752000037520000AC
:10003000375200003752000037520000375200009C
:10004000375200003752000037520000375200008C
:10040000FFFFFFFFFFFFFFFFFFFFFFFFFEFFFFFFFD
:1004100062B609F07FFAFEE72DE9FF4700240025C8
:10042000DDF800C0BCF1500F03DB5FF04F09CDF8E1
:100430000090DDF800C0BCF1000F03D55FF00009AB
:10044000CDF80090DDF808C0BCF1500F03DB5FF081
:100450004F09CDF80890DDF808C0BCF1000F03D5B6
:100460005FF00009CDF80890DDF804C0BCF13C0F46
:1004700003DB5FF03B09CDF80490DDF804C0BCF16C
:10048000000F03D55FF00009CDF80490DDF80CC033
:10049000BCF13C0F03DB5FF03B09CDF80C90DDF8BD
:1004A0000CC0BCF1000F03D55FF00009CDF80C9033
:1004B000DDF80890DDF800C0B9EB0C094846DDF81E
:1004C0000C90DDF804C0B9EB0C094946DDF800C01A
:1004D000E646DDF804C0E046012803DB5FF0010CCE
:1004E000664609E0002803D15FF0000C664603E091
:1004F0005FF0FF3C66464042012903DB5FF0010CE0
:10050000674609E0002903D15FF0000C674603E06D
:100510005FF0FF3C67464942814201DA030000E098
:100520000B005FF0000C624613F1010C94451AD3E6
:100530005FF0000CDFF8F49BD9F800905FF0500AF0
:100540000AFB08FAD14409F80EC004194D19A34258
:1005500002DAE41A16EB0E0EAB4202DAED1A17EBD2
:100560000808521CE0E7BDE8FF872DE9F84F0400BA
:100570000D0016001F00210032002000121A022078
:1005800092FBF0F041188A4629003A002800121A1E
:10059000042092FBF0F041188B463100320020001D
:1005A000121A042092FBF0F0091A884639003A002A
:1005B0002800121A022092FBF0F0091A89465246CE
:1005C0005B4620002900FFF727FF42464B46504676
:1005D0005946FFF721FF32003B0040464946FFF7EE
:1005E0001BFFBDE8F18FF0B505000E00AE4202DA48
:1005F0002A0035001600002D01D500273D003C2EB5
:1006000001DB3B273E002B009E4213DB05273C000D
:100610004B2C0DDA0127DFF868CCDCF800C05FF066
:10062000500E0EFB03FEF4440CF80470641CEFE75C
:100630005B1CE9E7F0BD2DE9F54F93B00F000024F6
:1006400000255FF000085FF0000900200021CDE9DF
:10065000040100200021CDE9020101200C900020BE
:1006600006001498864234DA57F82600022803DB85
:1006700057F826004E2801DB00200C90300001F0D6
:100680001FFC22002B0001F031FC04000D0057F884
:10069000260001F015FC42464B4601F027FC80463F
:1006A000894657F8260000FB06F001F009FCDDE959
:1006B000042301F01BFCCDE9040106FB06F001F068
:1006C000FFFBDDE9022301F011FCCDE90201761CFC
:1006D000C7E7149801F0F4FB02000B00200029008A
:1006E00001F0C0FCCDE91001149801F0E9FB020013
:1006F0000B004046494601F0B5FCCDE90E014246EB
:100700004B462000290001F0D1FD82468B4614980B
:1007100001F0D6FB02000B005046594601F0A2FC46
:1007200002000B00DDE9040101F092FECDE90001B9
:1007300022002B002000290001F0B8FD82468B46E4
:10074000149801F0BDFB02000B005046594601F021
:1007500089FC02000B00DDE9020101F079FE0200D4
:100760000B00DDE9000101F07DFCCDE90601DDE9CA
:100770000623DDE9100101F099FD02000B00DDE91F
:100780000E0101F065FECDE9080100200021CDE950
:100790000A01002006001498864243DA57F8260022
:1007A00001F08EFB82468B46300001F089FB02008F
:1007B0000B00DDE9060101F079FD02000B00DDE927
:1007C000080101F093FB02000B005046594601F06E
:1007D0003FFECDE9000157F8260001F071FB82468B
:1007E0008B46300001F06CFB02000B00DDE90601D6
:1007F00001F05CFD02000B00DDE9080101F076FB71
:1008000002000B005046594601F022FEDDE90023AC
:1008100001F04CFDDDE90A2301F068FBCDE90A0196
:10082000761CB8E7149801F04BFB02000B00DDE9E1
:100830000A0101F017FCCDE90A01139806A920224C
:1008400001F088FE15B0BDE8F08F2DE9F04FCFB074
:10085000DFF8180C0068002800F1D1813125DFF89D
:10086000240AD0E90089DFF8200AD0E900AB3B2058
:100870000400052C23DB0A3D012D01DA01200500CF
:10088000DFF8A8080068502101FB04F10844405D2E
:10089000002814D0DFF894080068502101FB04F10F
:1008A0000844405D002801D06D1CF3E712A86142A6
:1008B00000EB8100C0F8EC500094641ED9E700986A
:1008C0000A2822DADFF8A40B006800281DD11E22B6
:1008D00012A902A8FFF7AFFE0898002814D0DDE99E
:1008E00002010022002301F079FE0DD2DDE90601AC
:1008F0000022DFF87C3B01F071FE05D25FF0FF3093
:10090000DFF8681B086000E079E1129882463B201E
:100910008346DFF8580B006810F1010F40F0F780B4
:1009200012980A380500012D01DA01200500DFF8D0
:10093000FC070068284441F27021405C002801D087
:100940006D1EF4E72F0013980A380500012D01DA17
:1009500001200500DFF8D4070068284410F5915005
:100960000078002801D06D1EF4E72E003920040025
:100970000098A04280F2C68012A8614200EB81007C
:10098000D0F8EC000A380500012D01DA012005003D
:10099000DFF898070068502101FB04F10844405D2E
:1009A000002801D06D1EF3E71E2C80F2A780092DD0
:1009B000C0F2A480F01B0628C0F2A080A81B022869
:1009C00080F29C80DFF864070068502101FB04F18D
:1009D0000844284490F89C00002800F08F80DFF83D
:1009E0004C070068502101FB04F10844284410F82A
:1009F0009D0C002800F08280142212A87FF00301D1
:100A000001FB04F1084410F198010AA8FFF713FE56
:100A1000109800280ED0DDE90A010022002301F021
:100A2000F5FD07D3DDE90E010122DFF8443A01F0BC
:100A3000EDFD04D80020DFF8341A0860DFE00C3444
:100A400000210A291DDA12A8624200EB8200D0F8C8
:100A5000EC000A380500012D01DA01200500DFF85D
:100A6000CC060068502202FB04F21044405D0028CE
:100A700001D06D1EF3E712A840F82150491C641EF6
:100A8000DFE70A2212A902A8FFF7D5FD089800287F
:100A900021D0DDE902010022002301F0B7FD1AD2C6
:100AA000DDE906010022DFF8C83901F097FD12D216
:100AB0000120DFF8C01908600020DFF8B0190860D5
:100AC000DFF8B4090068DFF8B4190860DFF8B0098E
:100AD00001F0B4FD93E0280021008046894652468B
:100AE0005B4640464946FFF740FD0120DFF87C1990
:100AF0000860DFF8740B01F0A1FD80E037002E00E4
:100B0000641E35E70020DFF86419086077E0DFF83D
:100B10005C09006801286ED112980A380500012D81
:100B200001DA01200500DFF804060068284441F2DC
:100B30007021405C002801D06D1EF4E72F0013984F
:100B40000A380500012D01DA01200500DFF8DC0577
:100B50000068284410F591500078002801D06D1EDF
:100B6000F4E72E00392004000098A0423CDA12A8D5
:100B7000614200EB8100D0F8EC000A380500012D3D
:100B800001DA01200500DFF8A4050068502101FB0F
:100B900004F10844405D002801D06D1EF3E7062DE6
:100BA0001EDBF01B06281BDBA81B032818DADFF866
:100BB0007C050068502101FB04F10844284490F8AA
:100BC000EC0000280CD02800210080468946242C07
:100BD00001DA332D03DB0220DFF89018086003E010
:100BE00037002E00641EBFE752465B46404649462A
:100BF000FFF7BBFC03E00020DFF8701808604FB07F
:100C0000BDE8F08F2DE9F04FCFB0DFF86008006845
:100C1000012880F2D9811D25DFF8000BD0E9008979
:100C2000DFF8FC0AD0E900AB3B200400052C23DBF5
:100C30000A354F2D01DB4E200500DFF8F004006877
:100C4000502101FB04F10844405D002814D0DFF876
:100C5000DC040068502101FB04F10844405D0028D9
:100C600001D06D1EF3E712A8614200EB8100C0F8CD
:100C7000EC500094641ED9E700980A2821DADFF8C6
:100C8000EC07006800281CD11E2212A902A8FFF759
:100C9000D2FC0898002813D0DDE9020100220023CD
:100CA00001F0B4FC0CD2DDE906010022DFF8C03708
:100CB00001F094FC04D20120DFF8B017086000E0D6
:100CC00082E1129882463B208346DFF8A007006845
:100CD000012840F0F88012980A3005004F2D01DB02
:100CE0004E200500DFF844040068284441F27021DA
:100CF000405C002801D06D1CF4E72F0013980A30E7
:100D000005004F2D01DB4E200500DFF820040068B0
:100D1000284410F591500078002801D06D1CF4E7AC
:100D20002E00392004000098A04280F2C78012A84B
:100D3000614200EB8100D0F8EC000A3005004F2D35
:100D400001DB4E200500DFF8E4030068502101FBC1
:100D500004F10844405D002801D06D1CF3E71E2C0F
:100D600080F2A880472D80F2A580B81B0628C0F22B
:100D7000A180701B022880F29D80DFF8B00300681C
:100D8000502101FB04F10844284490F8A4000028F5
:100D900000F09080DFF894030068502101FB04F11B
:100DA0000844284410F8A30C002800F08380142283
:100DB00012A87FF0030101FB04F1084410F198012F
:100DC0000AA8FFF738FC109800280ED0DDE90A01C8
:100DD0000022002301F002FC07D3DDE90E0101220D
:100DE000DFF88C3601F012FC04D80020DFF87C1606
:100DF0000860E9E00C3400210A291CDA12A86242DA
:100E000000EB8200D0F8EC000A3005004F2D01DB2A
:100E10004E200500C5480068502202FB04F2104431
:100E2000405D002801D06D1CF4E712A840F8215065
:100E3000491C641EE0E70A2212A902A8FFF7FBFB87
:100E40000898002822D0DDE902010022002301F0E9
:100E5000C5FB1BD2DDE906010022DFF8143601F0E4
:100E6000BDFB13D25FF0FF30DFF8081608600020EA
:100E7000DFF8F8150860DFF800060068DFF8FC15F9
:100E80000860DFF8780A01F0D9FB9DE02800210016
:100E90008046894652465B4640464946FFF765FB19
:100EA0005FF0FF30DFF8C4150860DFF8540A01F086
:100EB000C5FB89E037002E00641E34E70020DFF810
:100EC000AC15086080E0DFF8A405006810F1010FA0
:100ED00076D112980A3005004F2D01DB4E20050017
:100EE00092480068284441F27021405C002801D0FB
:100EF0006D1CF5E72F0013980A3005004F2D01DB1C
:100F00004E20050089480068284410F5915000786B
:100F1000002801D06D1CF5E72E0039200400009850
:100F2000A04246DA12A8614200EB8100D0F8EC0042
:100F30000A3005004F2D01DB4E2005007B4800687C
:100F4000502101FB04F10844405D002801D06D1CD4
:100F5000F4E74A2D29DAB81B062826DB701B022885
:100F600023DA72480068502101FB04F10844284448
:100F700090F8A400002818D06C480068502101FBAC
:100F800004F10844284410F8A30C00280DD02800D0
:100F9000210080468946242C01DA1E2D04DA7FF0D8
:100FA0000100DFF8C814086003E037002E00641E5B
:100FB000B5E752465B4640464946FFF7D6FA03E09E
:100FC0000020DFF8A81408604FB0BDE8F08F2DE9CD
:100FD000F04FBDB0DFF8040B0068002808D10020F6
:100FE000DFF888140860DFF8F80A01F027FB99E0C1
:100FF0003127DFF8F00AD0E90045DFF8EC0AD0E944
:1010000000893B2006000A2E21DB0A3F012F01DA6E
:10101000012007009A480068502101FB06F10844AE
:10102000C05D002813D096480068502101FB06F1EE
:101030000844C05D002801D07F1CF4E701A871427C
:1010400000EB8100C0F8EC700096761EDBE701989B
:101050000A380700012F01DA0120070088480068DC
:10106000384441F27021405C002801D07F1EF5E732
:10107000BB4602980A380700012F01DA0120070059
:101080007F480068384410F591500078002801D05E
:101090007F1EF5E7BA46DFF87C2BD2E900015846FF
:1010A00004000D00392006000098B0423ADA01A889
:1010B000714200EB8100D0F8EC000A380700012FE4
:1010C00001DA012007006E480068502101FB06F19B
:1010D0000844C05D002801D07F1EF4E7062F1DDB09
:1010E000BAEB0B00062819DBB7EB0A00032815DA68
:1010F00063480068502101FB06F10844384490F829
:10110000EC0000280AD03800310004000D004246EF
:101110004B4620002900FFF77FF903E0D346BA468B
:10112000761EC1E73DB0BDE8F08F0000580DFF1FEF
:101130002DE9F04FBDB0DFF8A4090068002808D100
:101140000020DFF828130860DFF8940901F076FA30
:1011500092E01D27DFF8C00AD0E90045DFF8BC0A9D
:10116000D0E900893B2006000A2E21DB0A374F2FE9
:1011700001DB4E20070042480068502101FB06F1C8
:101180000844C05D002813D03D480068502101FB91
:1011900006F10844C05D002801D07F1EF4E701A8D5
:1011A000714200EB8100C0F8EC700096761EDBE720
:1011B00001980A3007004F2F01DB4E20070030480E
:1011C0000068384441F27021405C002801D07F1C47
:1011D000F5E7BB4602980A3007004F2F01DB4E208F
:1011E000070027480068384410F59150007800281F
:1011F00001D07F1CF5E7BA46392006000098B042BE
:101200003ADA01A8714200EB8100D0F8EC000A3014
:1012100007004F2F01DB4E200700194800685021BE
:1012200001FB06F10844C05D002801D07F1CF4E7F3
:101230004A2F1DDABBEB0A00062819DBBAEB0700C0
:10124000022815DA0E480068502101FB06F1084417
:10125000384490F8A40000280AD038003100040077
:101260000D0042464B4620002900FFF7D5F803E069
:10127000D346BA46761EC1E73DB0BDE8F08F000008
:10128000580DFF1FB09F0000B89F00002DE9F04DE2
:10129000BEB031263B2005000A2D23DB0A3E012E7D
:1012A00001DA01200600DFF8A00B0068502101FBE5
:1012B00005F10844805D002814D0DFF88C0B00682D
:1012C000502101FB05F10844805D002801D0761C07
:1012D000F3E702A8694200EB8100C0F8EC60A84681
:1012E0006D1ED9E702980A380600012E01DA0120A6
:1012F0000600DFF8540B0068304441F27021405C76
:10130000002801D0761EF4E7370003980A3806005B
:10131000012E01DA01200600DFF82C0B00683044B2
:1013200010F591500078002801D0761EF4E73400C3
:1013300039200500A8454FDA02A8694200EB810078
:10134000D0F8EC000A380600012E01DA0120060070
:10135000DFF8F40A0068502101FB05F10844805DC4
:10136000002801D0761EF3E7282E31DA0A2E2FDB73
:10137000E01B06282CDB301B022829DADFF8C80A1C
:101380000068502101FB05F10844304490F89C00AE
:1013900000281DD030002900CDE90001DFF8AC2A7B
:1013A000D2E9000182468B46032030490860DFF80D
:1013B000A00A0068DFF824170860DFF8980A01F037
:1013C0003DF952465B46DDE90001FFF725F84AE0AA
:1013D000270034006D1EADE73B2001900E200090E9
:1013E000DFF8640A0168019A5020424301EB0200D1
:1013F0000099405C002806D10198062803DB01987B
:10140000401E0190ECE70198401E019001980228CF
:101410000FDBDFF8340A0168019A5020424301EBE8
:1014200002000099405C002803D00198401E019002
:10143000ECE7272082463B208346DFF80C0A016850
:101440005A465020424301EB02005146405C0028BE
:1014500003D05046401C8246EFE752465B46DDE92A
:101460000001FFF782F83EB0BDE8F08DE833FF1FC2
:101470000000F03FEC33FF1F640DFF1FF833FF1F28
:10148000C09F00002DE9F04DBEB01D263B20050099
:101490000A2D23DB0A364F2E01DB4E200600DFF833
:1014A000A8090068502101FB05F10844805D00286F
:1014B00014D0DFF894090068502101FB05F10844BD
:1014C000805D002801D0761EF3E702A8694200EB98
:1014D0008100C0F8EC60A8466D1ED9E702980A307A
:1014E00006004F2E01DB4E200600DFF85C09006885
:1014F000304441F27021405C002801D0761CF4E7B2
:10150000370003980A3006004F2E01DB4E200600FC
:10151000DFF834090068304410F591500078002855
:1015200001D0761CF4E7340039200500A84551DAD3
:1015300002A8694200EB8100D0F8EC000A300600F6
:101540004F2E01DB4E200600DFF8FC08006850211A
:1015500001FB05F10844805D002801D0761CF3E70B
:10156000292E33DB462E31DA381B06282EDBA01B52
:1015700002282BDADFF8D0080068502101FB05F1C2
:101580000844304490F8A40000281FD030002900FF
:10159000CDE90001DFF8C028D2E9000182468B4680
:1015A0007FF00200DFF844150860DFF8A408006847
:1015B000DFF828150860DFF89C0801F03FF8524674
:1015C0005B46DDE90001FEF727FF4AE02700340013
:1015D0006D1EABE73B20019041200090DFF86808CA
:1015E0000168019A5020424301EB02000099405CDF
:1015F000002806D10198062803DB0198401E0190BF
:10160000ECE70198401E0190019802280FDBDFF8FB
:1016100038080168019A5020424301EB020000990A
:10162000405C002803D00198401E0190ECE7272081
:1016300082463B208346DFF8100801685A46502056
:10164000424301EB02005146405C002803D0504663
:10165000401E8246EFE752465B46DDE90001FEF799
:1016600084FF3EB0BDE8F08DC89F0000F8B50027AC
:1016700000243B200500102D4ADB0020070000203D
:101680000400002006004F2E20DA002C0DD1DFF8D8
:10169000B8070068502101FB05F10844805D00286F
:1016A00012D07F1C012004000EE0012C0CD1DFF8C9
:1016B00098070068502101FB05F10844805D00286F
:1016C00002D17F1C00200400761CDCE7DFF88C07C9
:1016D0000068B8421ADA142D05DAB5F10A01681D5E
:1016E000FEF781FF0DE0282D05DAB5F10C01E81DAC
:1016F000FEF779FF05E0B5F10F0115F10A00FEF7DD
:1017000072FF0120DFF85817086005E06D1EB2E790
:101710000020DFF84C170860F1BD0000D09F0000EA
:10172000D89F00002DE9F04FC5B0DFF838070068FA
:10173000002808D1DFF8300700F080FF0020DFF834
:101740002C170860D7E031273B200600052E23DB4D
:101750000A3F012F01DA01200700DFF8EC060068DC
:10176000502101FB06F10844C05D002814D0DFF8C9
:10177000D8060068502101FB06F10844C05D00282E
:1017800001D07F1CF3E708A8714200EB8100C0F88C
:10179000EC70B146761ED9E708980A380700012F89
:1017A00001DA01200700DFF8A0060068384441F2A2
:1017B0007021405C002801D07F1EF4E7B846DFF8B6
:1017C000B006D0E900ABDFF8AC26D2E90001CDE9E4
:1017D0000001DFF8A426D2E90001CDE90201DFF81B
:1017E0009C26D2E90001089AB2EB0802042392FB7E
:1017F000F3F212EB08021000CDE904013A200600D2
:10180000B14555DA08A8714200EB8100D0F8EC0030
:101810000A380700012F01DA01200700DFF8280647
:101820000068502101FB06F10844C05D002801D08A
:101830007F1EF3E7B8EB0700062818DB08A8714203
:1018400000EB8100D0F8F010B1EB0801DFF83006B2
:1018500000684143642091FBF0F010EB0800069013
:10186000701C0790DDE90601CDE9000119E0B7EB36
:101870000800062815DBDFF80C26D2E9000108AACB
:10188000734202EB8302D2F8EC30DB1BDFF8F02569
:1018900012685343642293FBF2F2D2191000CDE98F
:1018A0000201B8463C003500A246AB46761EA7E7CB
:1018B000DDE9002350465946FEF7AEFD02980028A8
:1018C00006D1DDE90423DDE90001FEF7A5FD0BE00B
:1018D000DDE90223DDE90001FEF79EFDDDE90423D9
:1018E000DDE90201FEF798FD01982E2803DB0020B8
:1018F000DFF87815086045B0BDE8F08FE09F000084
:10190000E89F00002DE9F04FC5B0DFF858050068EA
:10191000002808D1DFF8500500F090FE0020DFF825
:101920004C150860D7E01D273B200600052E23DB61
:101930000A374F2F01DB4E200700DFF80C05006847
:10194000502101FB06F10844C05D002814D0DFF8E7
:10195000F8040068502101FB06F10844C05D00282E
:1019600001D07F1EF3E708A8714200EB8100C0F8A8
:10197000EC70B146761ED9E708980A3007004F2F61
:1019800001DB4E200700DFF8C0040068384441F254
:101990007021405C002801D07F1CF4E7B846DFF8D6
:1019A000E804D0E900ABDFF8E424D2E90001CDE996
:1019B0000001DFF8DC24D2E90001CDE90201DFF803
:1019C000D424D2E90001089AB2EB0802042392FB66
:1019D000F3F212EB08021000CDE904013A200600F0
:1019E000B14555DA08A8714200EB8100D0F8EC004F
:1019F0000A3007004F2F01DB4E200700DFF84804B4
:101A00000068502101FB06F10844C05D002801D0A8
:101A10007F1CF3E7B7EB0800062818DB08A8714223
:101A200000EB8100D0F8F010B1EB0801DFF85004B2
:101A300000684143642091FBF0F010EB0800069031
:101A4000701C0790DDE90601CDE9000119E0B8EB53
:101A50000700062815DBDFF84024D2E9000108AAB8
:101A6000734202EB8302D2F8EC30DB1BDFF8102468
:101A700012685343642293FBF2F2D2191000CDE9AD
:101A80000201B8463C003500A246AB46761EA7E7E9
:101A9000DDE9002350465946FEF7BEFC02980028B7
:101AA00006D1DDE90423DDE90001FEF7B5FC0BE01A
:101AB000DDE90223DDE90001FEF7AEFCDDE90423E8
:101AC000DDE90201FEF7A8FC01982E2803DB0020C7
:101AD000DFF89813086045B0BDE8F08FF433FF1FBE
:101AE000F09F0000F89F000000A00000E833FF1FF7
:101AF00080B5DFF8A8030068012806DBDFF89C0347
:101B00000068401EDFF894130860DFF8580300688F
:101B1000012806DBDFF84C030068401EDFF84413A1
:101B20000860FFF7A3FDDFF878030068012808D1FB
:101B30003B213120FEF757FD0020DFF864130860D9
:101B400067E0DFF81C030068012862D000203C2811
:101B500012DA0021DFF8F0221268502303FB00F3B1
:101B6000D1540021B84A1268502303FB00F31A44F1
:101B700082F84F10401CEAE73B2132290BDBB248C8
:101B80000068502202FB01F2104490F82700002860
:101B90003FD0491EF1E7B5480068012802D1FFF7A0
:101BA000C1FD36E0B148006810F1010F02D1FFF726
:101BB000A9FE2EE0BB480068022809DAB94800688F
:101BC00010F1010F04DBFEF740FEFFF71BF820E0E9
:101BD000B4480068022802D1FFF758FB19E0B14869
:101BE000006810F1020F02D1FFF74CFC11E0AD4884
:101BF0000068032802D1FFF7EAF90AE0A948006863
:101C000010F1030F02D1FFF793FA02E00020A5497B
:101C1000086001BD78A0000008A0000010A000002E
:101C20002DE9F04FD9B05FF0000B5FF04F0A4FF491
:101C3000966000909B4800688C490968084300281A
:101C400040F0E78027200400322005001A2D23DB16
:101C50002600022E0ADB7C480068502101FB05F1BA
:101C60000844805D002801D0761EF2E727004E2F41
:101C70000ADA75480068502101FB05F10844C05D8F
:101C8000002801D07F1CF2E7012E03D14E2F01D195
:101C90001BF1010B6D1ED9E7BBF1050FC0F2B98036
:101CA0003B2008A941F82A004E200400022C2BDB1F
:101CB0003B20050064480068502101FB05F1084401
:101CC000005D002803D1062D01DB6D1EF2E76D1EBD
:101CD000022D0ADB5C480068502101FB05F1084435
:101CE000005D002801D06D1EF2E708A840F82450DE
:101CF0000B2C07DB462C05DA08A850F82A00854291
:101D000000DAA246641ED1E7BAF1140F02DA1420F9
:101D1000824604E0BAF13C0F01DB3B2082461AF117
:101D20000A000190BAF10A0004000198844218DA0E
:101D300000208146B4F10A00804614F10A00804573
:101D400007DA08A850F8280010EB090918F1010873
:101D5000F3E70098814502DAA246CDF80090641CB2
:101D6000E3E7BAF10E0F02DA0E20824604E0BAF180
:101D7000410F01DB402082464B4AD2E90001CDE908
:101D80000601BAF10A000690DDE90623DFF81CC15E
:101D9000DCE90001FEF740FB454AD2E90001CDE94C
:101DA00006011AF10A000690DDE90623DFF804C1F6
:101DB000DCE90001FEF730FB3F4AD2E90001CDE942
:101DC0000601BAF10A000690BAF10A00049008A8C8
:101DD00000EB8A0050F8280C0590DDE90423DDE9CA
:101DE0000601FEF719FB354AD2E90001CDE90401ED
:101DF0001AF10A0004901AF10A00029008A800EBF8
:101E00008A00806A0390DDE90223DDE90401FEF720
:101E100003FB59B0BDE8F08F0120214908607047ED
:101E200080B500201F49086000201049086000208C
:101E30000B49086000201949086000200949086022
:101E4000FFF7EAFF01BD0000580DFF1F18A00000BA
:101E5000600DFF1F20A0000028A000005C0DFF1FE8
:101E6000F033FF1FF833FF1F30A00000EC33FF1FDB
:101E700038A0000040A0000048A0000080A00000A2
:101E8000680DFF1F88A0000050A0000058A00000AF
:101E900060A0000090A0000098A00000F433FF1F95
:101EA000FC33FF1FE833FF1FA0A0000068A0000064
:101EB000A8A0000070A00000B0A00000B8A0000022
:101EC000C11768B14840401AB0FA80F29040D21C65
:101ED000C907C2F5846241EA025202EBD0214005F3
:101EE00070470268531C03601170704770B44FF064
:101EF000004591EA030F40F1B3826B40841A71EB05
:101F0000030604D26E40001BB141121973414FF415
:101F1000001C1CEB410F34BF7CEB430682E00C0D30
:101F2000A4EB1356362E7BDC012E45EAC32341DC9D
:101F300043EA525312BFD20292025B08240545EADB
:101F4000C12141EA5051D2EBC020994125D407D19B
:101F5000B0FA80F610FA06F162D00020203608E0D0
:101F6000B1FA81F6B140C6F1200220FA02F2114323
:101F7000B0404FEAF474B4EB465434F001064FEA33
:101F800074040AD8D6F50016760D04F00044F0402B
:101F900061FA06F25040F1404840C00A40EA415020
:101FA00021F0004128BF5FEA500550F1000044EBEA
:101FB000D12135E0DB0A45EAC121C90AB6F1200585
:101FC0000EDD42EA0242120CC5F1200603FA06F6C3
:101FD000EB4042EA06056D42984161F100010DE0D7
:101FE00062FA06F5F240554063FA06FC82EA0C02FA
:101FF000F3405A406D42904161EB030111F4801FA0
:1020000005D1641E620502D06D004041494121F4B2
:102010008011430875F1004350F1000041EB045179
:1020200070BC70471CEB410F15D223F0004352EAFD
:1020300043060BD04FEA4C0CBCEB410F04D80C0DFF
:10204000661E342EB7DDEBE7801A994150EA41064F
:1020500008BF0021E4E708BF1CEB430F28BF6FF067
:102060000001DDE7F0B540F2FF7581EA030C0CF0EA
:10207000004C15EA11541DBF15EA1357AC42AF428C
:10208000E5E0BC41C1F31301C3F31303801A994186
:1020900043F4801304D2641E400049418018594122
:1020A000C90241EA5051B1FBF3F603FB1611A2FB42
:1020B0000675D7EBC020A94102D2761E801859417F
:1020C000C90241EA5051B1FBF3FE03FB1E11A2FB12
:1020D0000E75D7EBC020A94103D2AEF1010E8018D6
:1020E0005941890241EA9051760546EA8E2EB1FBAC
:1020F000F3F603FB1611A2FB0675D7EB8020A9416E
:1021000002D2761E80185941C90241EA50514EEA66
:10211000060EB1FBF3F603FB1611A2FB0675D7EB17
:10212000C020A94102D2761E80185941C90241EA55
:102130005051B1FBF3F703FB1711A2FB0735D3EBAB
:10214000C020A94167F100070CBF004247F001071A
:1021500066F3D5274FEA1E31B80814F5806412DD06
:10216000BD0775F1004250EB0E5051EB045111F5D3
:10217000801F5CBF41EA0C01F0BD4CF07F6141F073
:10218000E0410020F0BDBD076D0840EA0E5041F46B
:102190008011D4F10104B4F120060ADAC4F120065A
:1021A0000200E04001FA06F3E1401843B240154353
:1021B0000EE0342C13DCC6F1200445EA40056D081E
:1021C00020FA06F2154321FA06F0A1400D43002142
:1021D00075F1004250F1000051EB0C01F0BD002000
:1021E0005FEA0C01F0BDCFB992185B41B3FA83F7F7
:1021F00004BFB2FA82F6BF190B3FB7F120062FBF1A
:1022000002FA06F3BB40C7F1200622FA06F638BFF1
:102210003343BA401CB1E419641E33E77F4231F006
:102220000041B1FA81F404BFB0FA80F6A4190B3C66
:10223000B4F120062FBF00FA06F1A140C4F1200638
:1022400020FA06F638BF3143A0403C1B1AE7AC42E7
:102250001ABF05EA1357AF4212E050EA41061CBF0D
:1022600052EA4306BFE750EA4107304661461CBFC9
:1022700041EA0551F0BD52EA430C08BFC143F0BD2D
:1022800000204FF4001616EB410F98BF16EB430FDA
:1022900008BF16EB410F24BFC14305E016EB430F07
:1022A0000CBF61464CEA0551F0BD0100B0B581EAB2
:1022B000030C0CF0004C40F2FF7515EA11541DBFE1
:1022C00015EA1357AC42AF4239E0E41923EA45530B
:1022D00043F48013C90241F0004141EA505EC70255
:1022E0001100A7FB020200284FF00000EEFB0120C6
:1022F0004FF00001E3FB072118BF42F00102401834
:1023000000214941E3FB0E01A4F580640F0302D2D2
:1023100052004041494154F101046CDD470872F11B
:10232000004250F1000051EB0451A1F580115CBF57
:1023300041EA0C01B0BD4CEA05510020B0BD05EAF0
:102340001357AC4214BFAF4241E050EA410E1CBFEC
:1023500052EA430E02E061460020B0BD24423C44F4
:102360001BD15FEA070EF6D0090302BF0146002029
:10237000AEF1140EB1FA81F7AEEB070401FA07FED5
:102380000C37C7F1200100FA07F7C8404EEA000EEB
:1023900023EA455343F48013A2E733F00043B3FA32
:1023A00083F704BFB2FA82FE77440B3FE41BB7F118
:1023B000200E2FBF02FA0EF3BB40C7F1200E22FA07
:1023C0000EFE38BF43EA0E03BA40641C82E750EAAF
:1023D000410E14BF52EA430E6FF000014FF4001794
:1023E00017EB430F8ABF194617EB410FB5E74CEACD
:1023F00005510020B0BDD4F10104B4F120070FDA7B
:10240000C4F12007520828BF42F0010210FA07F574
:1024100001FA07F7E1BF2A43E0403843E1400FE00B
:10242000352C98DCC7F1200452EA400220FA07F26A
:1024300018BF42F0010231FA07F0A1400A4300211F
:1024400072F1004250F1000051EB0C01B0BD0000F0
:1024500070B44FF0004591EA030F7FF54FAD6B402C
:10246000841A71EB030603D2001BB14112197341A8
:102470004FF4001C1CEB410F34BF7CEB430442E0E3
:102480000C0DA4EB1356352E4FDC45EAC323DB0AB3
:1024900045EAC121C912B6F120050DDD63FA05F642
:1024A000EB4086EA0305124218BF45F00105C0184B
:1024B00051F100010CD213E062FA06F5F2405540EA
:1024C000F3415A40B340F3405A408018594107D372
:1024D00049085FEA30005FEA350528BF45F001058D
:1024E00001F58011420875F1004250F1000041EB06
:1024F00004514E0016F5001F70BC38BF7047002015
:10250000090D090570471CEB410F10D252EA430632
:102510000BD0BCEB410F05D80C0DAB43661E342E1F
:10252000B6DD02E0AB438018594170BC704770BC07
:102530007047000062B38B0708D0521E11F8013BB0
:1025400000F8013B00F024808B07F6D1830740F0B0
:10255000208000BF103A07D330B4B1E83810103AE9
:10256000A0E83810F9D230BC530724BFB1E80810F6
:10257000A0E8081044BF51F8043B40F8043BD207E0
:1025800024BF31F8022B20F8022B44BF0B780370D4
:102590007047121F17D35B0009D151F8043B20F894
:1025A000023B1B0C121F20F8023BF6D20BE051F845
:1025B000043B00F8013B1B0A20F8023B1B0C121FD6
:1025C00000F8013BF3D238BF121D521E24BF11F890
:1025D000013B00F8013BF8D8704700004FF4001CA5
:1025E0001CEB410F94BF1CEB430F09E041EA030CC5
:1025F00050EA4C0C52EA0C0C03D2994208BF9042AC
:10260000704714BF8B428242704700004FF4001C99
:102610001CEB410F94BF1CEB430F09E041EA030C94
:1026200050EA4C0C52EA0C0C03D28B4208BF824297
:10263000704714BF99429042704700000EB4C0B575
:10264000024603A800210190009101AB012104483A
:1026500078440C3000F006F806BC5DF810FB00BFB3
:10266000297800002DE9F0439FB081462698DFF8D5
:1026700004898DF83B00174600201E4602910B90FE
:102680000FF688344FF0FF350AE017F8011B029867
:10269000C8470028029000F09A800B98401C0B90CD
:1026A000387850B12528F0D10020002105900691FE
:1026B0000790089109900A9103E00B989AE041F085
:1026C000010117F8010F2028F9D023280DD02B285D
:1026D00004D02D2806D030280AD07AE041F002013B
:1026E00089B2EEE741F00401FAE741F00801F7E7AB
:1026F00041F01001F4E700200D9009E00D984045ED
:1027000005DA00EB800302EB4302303A0D927F1CA6
:102710003A78A2F130000A28F0D33A782E2A18BF6E
:102720000C9523D117F8010F2A2807D130683060A3
:102730007F1C50F8042B30600C9217E02D280CBF42
:1027400017F8010B002000220C920AE040B90C9A05
:10275000424505DA02EB820203EB4203303B0C9365
:102760007F1C3B78A3F130020A2AEFD3ADF8381072
:102770002046397800F07EFD08B117F8010B8DF87E
:102780003A009DF83A00682804BF3978682903D1D7
:1027900062208DF83A0007E06C2804BF38786C2876
:1027A00003D171218DF83A107F1C10A80490324695
:1027B00017F8013B6946484600F05CF838B910AAA2
:1027C0006946484600F084F900287FF569AF28463D
:1027D00010E02A288FD13068306050F8042B306028
:1027E000002A0D9204D5524241F004010D9289B2A3
:1027F0007F1C92E71FB0BDE8F083622820D06828D4
:1028000011D06A2803D06C2827D0712825D10868F8
:10281000C01D20F007000860D0E9002308300860E0
:10282000194610467047002A0A680A60106803D0EB
:10283000121D0A6000B217E0121D0A6080B217E094
:10284000002A0A680A60106803D0121D0A6040B2AC
:102850000AE0121D0A60C0B20AE0002A0A680A6093
:10286000106803D0121D0A60C1177047121D0A605C
:102870000021704770B51C460D46B4F125002E6945
:10288000114600F013812038022865D9133841D051
:102890000B3816D0401E1ED0401E02285CD9001FE7
:1028A00019D0401F00F08380401E33D0401E00F03E
:1028B000CD80C01E00F0D880801E2BD0C01E29D035
:1028C000FAE06869421C6A610A680A6052F8043BCF
:1028D0000A603354FAE095F83A000122FFF78DFFC1
:1028E000C5E900010023994204DA6869411C696165
:1028F0002D210DE0288F810704D56869411C69618D
:102900002B2105E0C00722D56869411C696120219F
:1029100031541CE095F83A000022FFF76EFFC5E93C
:10292000000195F83800010711D5D5E900230020F2
:10293000834208BF82420AD044F02000782806D1A2
:10294000686930213154401C411C6961345421466E
:1029500068693044E86083E00868C01D20F0070023
:102960000860D0E9002308300860C5E90023D5E9F4
:102970000001C80F04D06869411C69612D210DE078
:10298000288F810704D56869411C69612B2105E006
:10299000C00704D56869411C696120213154686908
:1029A0003044E8602146284600F0C1F98EE005F188
:1029B0003A02507820B14FF0FF340FF658005EE035
:1029C0001078622808D0682824D06A2812D06C2891
:1029D0002ED071280ED02BE00A680A6052F8040B42
:1029E0000A6020B94FF0FF340FF6400047E0E96A73
:1029F00001706BE00A680A6052F8040B0A6020B9A3
:102A00004FF0FF340FF6240039E0EA6AD317C0E92B
:102A100000235BE00A680A6052F8040B0A6020B9E0
:102A20004FF0FF340FF6040029E0E96A01804DE021
:102A30000A680A6052F8040B0A6020B94FF0FF34AC
:102A40000FF2E8701BE0E96A01603FE00A680A6083
:102A500052F8040B0A600021C5E90001EE607821FC
:102A6000284600F0BCF831E00868086050F8044BD4
:102A70000860EC603CB94FF0FF340FF2C87000F012
:102A800005FC201A70BD2E6B002E04D5204600F0E8
:102A90001FFC044608E032460021204600F034FCCA
:102AA000002814BF041B3446AC610FE06869411C68
:102AB00069612521315409E06869411C6961252259
:102AC0003254200002D0481C68617454002070BD4C
:102AD0002DE9F0410F4682B00646796B7869BC6AF1
:102AE000091A386A091AB869091A786A091AF86954
:102AF000091A97F838000C1B410790460FD4202183
:102B0000002C8DF800100ADD254601236A4639465F
:102B1000304600F064FB00285DD16D1EF5D17B6965
:102B200042463946304600F05AFB002853D1302047
:102B30008DF800003D6A002D09DD01236A46394603
:102B4000304600F04CFB002845D16D1EF5D1BB6925
:102B5000FA683946304600F042FB00283BD130206D
:102B60008DF800007D6A002D08DD01236A46394694
:102B7000304600F034FB70BB6D1EF6D1F868B969C1
:102B8000FB6942183946304600F029FB18BB30205B
:102B90008DF80000BD6A002D08DD01236A46394624
:102BA000304600F01CFBB0B96D1EF6D197F8380026
:102BB00041070DD52021002C8DF8001008DD0123E0
:102BC0006A463946304600F00AFB20B9641EF6D149
:102BD0000020BDE8F6814FF0FF30BDE8F6812DE919
:102BE000F04704468A462569BAF16F0F08BF0827E7
:102BF00005D04AF02000782814BF0A2710273C2669
:102C0000D4E90001BAF1640F18BFBAF1690F804628
:102C1000894607D10B4600218B4203DAD8F1000820
:102C200069EB49090020814508BF80451FD1206B11
:102C3000E8B9082F47D194F83800010743D5302070
:102C40003B2685F83B003EE000280ED594F838007E
:102C500000F01400102808D1626B6069121A206A13
:102C6000121A561A002EC8BF2662BDE8F0874046E9
:102C700049463A46FB1700F073FB3032761ED2B25B
:102C80003A2AA4BFAAF151008218AA5540464946E3
:102C90003A46FB1700F064FB8046894600208145D8
:102CA00008BF804503D0E068A9198842DFD3082F08
:102CB00009D194F83800010705D5A95D302902D063
:102CC000761E3020A855A819E060C6F13C01206BA3
:102CD000A1618142B8DA411A21624FF6EF70218F6B
:102CE00001402187BDE8F0872DE9D04306460F4615
:102CF00014464FF00008DFF8809212E0E00707D595
:102D000042464B4630463946FFF7D0FA06460F4654
:102D10004046494642464B46FFF7C8FA6410804693
:102D20008946002CEAD130463946BDE8D0832DE9EA
:102D3000F04F04468FB0206BD4E9009A00288846F3
:102D400004AD48BF062005D404BF48F02000672822
:102D500001D101202063D4E9002358004015401C14
:102D60000DD119030BD0A8F1610103201A29A0612C
:102D700002D20FF2EC4110E00FF2E8410DE05800F2
:102D80004015401C0ED119030CD1A8F1610103209C
:102D90001A29A06116D30FF2D441E0680322FFF78D
:102DA000C9FBE3E0CDE9022323F00041B1F5801F28
:102DB00011D20026B14208BFB242019605D1DDE929
:102DC000020118E00FF2A041E7E7DDE9020101AAE4
:102DD00000F03EFB08E0694E06EB1156684901968B
:102DE0000B40684910461943019F674A47F29756BE
:102DF000774397FBF2F6C4E90001024621F0004355
:102E00000020834204BF8242002300F0A78048468E
:102E1000514600220023FFF7E1FB38BF8AF0004A49
:102E20003246D2F10702019603DD5146FFF75CFFFF
:102E30000AE0524200205549FFF756FF02460B4672
:102E400048465146FFF70EF9814648F0200BBBF18A
:102E5000660F206B06BF019E0A3606263618142E12
:102E6000C8BF142630208A468DF810000DF11107D6
:102E7000002E33DD4846514600F022FB01460A464B
:102E800007F1080304200A27B2FBF7F707EB8705D1
:102E9000A2EB4502303203F8012C0A22B7FBF2F212
:102EA00002EB8205A7EB45073037401E03F8027D91
:102EB000E9D1083E002E03F10807D9DD084600F0ED
:102EC00013FB02460B4648465146FFF7C1FA002263
:102ED0002F4BFFF7EBF981468A46CBE70DF1110046
:102EE0003F1A0DF1110504E00198401E7F1E01906C
:102EF0006D1C28783028F7D0BBF1660F02D10198FD
:102F0000401C04E0BBF1650F0CBF01200020236BC7
:102F1000C3189F42B8BF7B1E002B1ED4BB4204DAED
:102F2000E85C3528A8BF392000DA302019466A1E2F
:102F300002EB010900E05B1E19F801A9491E824558
:102F4000F9D0392802D1685C401C6854002904D5A6
:102F50000198401C15465B1C0190019800B200903E
:102F60001BB22A464146204600F014F80FB0BDE8D7
:102F7000F08F0000CBCCCC0C0000244002FCFFFF03
:102F8000FFFF0F800000E03FA08601000000F03F3F
:102F900084D797412DE9F04786B005468946924689
:102FA0001F4600F0C7FA002F406A2E6B90F8008091
:102FB00002DC01270FF2B82ABDF9384049F02000A1
:102FC000662808BF641C13D0672840F0898014F17C
:102FD000040F74DBB44272DA95F83800641C010700
:102FE00002D4B742B8BF3E4624B2361B48BF0026C3
:102FF00024B2E868A969002C22DC4A1C302343541F
:10300000002E03DC95F83800010703D5E86800F8C6
:103010000280521CE642B8BF744224B2A619604234
:10302000BE42B8BF3746AA6168623FB2EF61E86846
:10303000AB693A4651461844FFF77CFAF61B18E094
:1030400022469742084416DA3A465146FFF772FA8A
:10305000A9697918E01B002EA961686203DC95F864
:103060003800020705D5E86800F80180E869401CCF
:10307000E861AE629CE05146FFF75CFAA86920184F
:103080003F1B002E03DC95F838100A0703D5E968CA
:1030900001F80080401CA8613FB2BE42B8BF37466D
:1030A000E868AB693FB23A460AEB04011844FFF7FF
:1030B00041FAA8693818A861F61B6E6278E0B74239
:1030C00004DA95F838100A0758BF3E46761E48BF06
:1030D0000026B9F1670F0CBF4FF065094FF04509A5
:1030E000A969EB68481CA861002E1AF8012B5A54F4
:1030F00003DC95F838100A0717D5E968431CAB6163
:1031000001F80080002E10DD7F1E3FB2BE42B8BF26
:103110003746E8683FB23A4651461844FFF70AFA84
:10312000A8693818A861F61B6E62E868A9690844A6
:10313000002C80F8009004D42B21417000F1020A89
:1031400004E02D21417000F1020A64424FF00008B2
:103150006E4609E00A2203A800F0F4F9049806F884
:10316000010B08F10108039C21B20029F2DCB8F13F
:10317000010F06DC49F02000652804BF30200AF862
:10318000010BB8F1000F0AD130200AF8010B09E059
:10319000A8F101081DF8080030300AF8010BB8F159
:1031A000000FF5DCE868A9690844AAEB0000E861B3
:1031B00095F8380000F0140010280DD16969A8694D
:1031C0004118686A4118E8694118A86A4118686B93
:1031D0008142BCBF411A296206B0BDE8F087F8B54C
:1031E00005460E4617461C46002074B117F8011B11
:1031F000B068A847B06030B1F06A401CF0620020AF
:10320000641EF3D1F2BD4FF0FF30F2BD686A6C74FA
:103210007A4C00007072696E74665F733A20256E96
:1032200020646973616C6C6F776564007072696E9D
:1032300074663A2062616420256E20617267756D44
:10324000656E74007072696E74665F733A206261B5
:103250006420257320617267756D656E74000000CF
:103260006E616E004E414E00696E6600494E46002A
:10327000300000000278C9B28A421AB11CBF10F8AF
:10328000012FF9E718BF00207047000080B508B98A
:103290000FF21C0005490B681BB122220021984740
:1032A00001E000F056F9222002BD00000034FF1FAB
:1032B000636F6E73747261696E742068616E646CA2
:1032C00065723A20626164206D65737361676500A1
:1032D00000F10103810704D010F8011B89B18107B7
:1032E000FAD10268B2F10131914311F0803F04BF7D
:1032F00050F8042FF6E710F8011B11B110F8011B6C
:10330000FBE7C01A70470000C9B2830706D0521EFF
:1033100022D310F8013B9942F7D11FE0083A13D3AA
:1033200002F1040241EA012141EA014150F8043B63
:10333000121F21BF4B40A3F1013C2CEA030C1CF0EF
:10334000803FF3D0C9B2001F083210F8013B521E73
:1033500028BF91EA030FF8D818BF0120401E70471C
:103360001B4213D1094236D12AB18446B0FBF2F098
:1033700002FB10C2704700F0EFB8FCD3002200231C
:1033800070470B000200002100207047904271EB53
:10339000030CF6D370B5B1FA81F4B3FA83F52C1BA4
:1033A000A340C4F1200532FA05F63343A2405FF092
:1033B0000046E64002E05B085FEA3202841A71EBE5
:1033C000030524BF204629467641F4D302000B00B2
:1033D0003000002170BD012ACFD970B5140C20D067
:1033E000B1FA81F4B2FA82F5C4F120046419B4F19F
:1033F0002006D6D3B2405FF00044F440002502E03E
:1034000052085FEA3303C61A71EB020E24BF30463E
:10341000714664416D41F3D302000B002000290086
:1034200070BD0C46B1FBF2F102FB11452D0445EADB
:103430001045B5FBF2F402FB145580B240EA054595
:10344000B5FBF2F002FB105240EA044070BD0000F0
:1034500010B5144600F002F8226010BDC1F30A5303
:1034600043B14A0012F5001F28D2A3F2FE32A1EBAD
:103470000251704750EA410C20D001F0004C31EA73
:103480000C01B1FA81F204BFB0FA80F3D2180B3A02
:10349000B2F120032CBF00FA03F1914041EA0C0184
:1034A0003EBFC2F1200C20FA0CF319439040524267
:1034B00040F2FD33D21A01EB0351704700227047EE
:1034C000400D491840EA81200CD2490DA1F58061D8
:1034D000491C40F0004005DBD1F11F0154BFC8403A
:1034E000C017704700207047014648B1B0FA80F11C
:1034F0008840C91CC1F58461090501EBD021400554
:1035000070470000FFE741381A288041C00F70471C
:10351000A0F10901052901D3202801D1012070471C
:1035200000207047A0F141011A2938BF20307047B0
:10353000024870470248704700000000A40DFF1FBA
:103540006C0DFF1F91FBF2F303FB1211C0E9003178
:103550007047012000F002B87047000020210903E5
:1035600026311820ABBEF9E780B5DFF8BC0A006849
:10357000401CDFF8B41A0860DFF8B00A00680128C0
:1035800010D1DFF8AC0AD0E90001DFF8A82AD2E9AF
:103590000023FFF73BF805D8FEF742FC0120DFF8D7
:1035A000981A0870DFF8880AD0E90001DFF8842A49
:1035B000D2E90023FFF712F803D2FEF731FCFEF741
:1035C0002BFCFEF795FAFEF72BFBDFF8700A00F0F4
:1035D00005F8DFF8680A00F0D8FC01BD70B50400FA
:1035E00000202060002084F8B0012820C4F8C0002A
:1035F000002084F84000502084F87D00002084F8EA
:103600007C00002084F8B9002820C4F8BC00002009
:1036100084F8B201002084F8B3010020C4F8C0018E
:10362000002084F8B501002084F8B701002084F858
:10363000B901002084F8BB01002084F8C8010020F3
:1036400084F8CA013B20060036B2002E00F1BC818E
:1036500036B2392E19DB2100300000B200F0AFFA8B
:10366000216836B2704204EB8000D0F8AC014118FA
:10367000216036B2392E07D120680321B0FBF1F06A
:1036800020602068C4F8BC009CE12100300000B23A
:1036900000F02EFB36B2704204EB8000D0F8AC0193
:1036A00049281EDBD6F13B0084F8B001002005005C
:1036B00036B2002E10D46D1CD4F8C001401CC4F8E2
:1036C000C0012DB215F1500036B2714204EB8101F8
:1036D000C1F8AC01761EEBE7D4F8C001C4F8C40110
:1036E00072E136B2D6F13B003B2803D1D6F13B0064
:1036F00084F8B00136B2704204EB8000D0F8AC011F
:1037000007281DDAD6F13B0084F8B001002005003F
:1037100036B2002E0FD46D1CD4F8C001401EC4F880
:10372000C0012DB2684236B2714204EB8101C1F88A
:10373000AC01761EECE7D4F8C001C4F8C40143E143
:1037400036B2D6F13B003B2803D1D6F13B0084F8DA
:10375000B00136B27042204490F9B81036B27042CF
:10376000204490F97B0000F02FFC0A284ADA36B298
:103770007042204490F9B80029281EDBD6F13B00A6
:1037800084F8B0010020050036B2002E10D46D1C64
:10379000D4F8C001401CC4F8C0012DB215F150008E
:1037A00036B2714204EB8101C1F8AC01761EEBE741
:1037B000D4F8C001C4F8C40106E136B27042204416
:1037C00090F97B00282826DAD6F13B0084F8B00176
:1037D0000020050036B2002E0FD46D1CD4F8C001B5
:1037E000401EC4F8C0012DB2684236B2714204EBEB
:1037F0008101C1F8AC01761EECE7D4F8C001C4F831
:10380000C401E1E036B2D6F13B003B2803D1D6F14A
:103810003B0084F8B00194F9B601012804DA94F968
:10382000BC010628C0F2C68036B2704204EB8000AC
:10383000D0F8AC1136B2704204EB8000D0F8A80189
:10384000091A002913D4D4F8C40100280FD594F91B
:10385000B20100280BD136B2704204EB8000D0F8E0
:10386000A80136B2714204EB8101C1F8AC0136B255
:10387000704204EB8000D0F8AC1136B2704204EB19
:103880008000D0F8A801091A002926D4D4F8C40170
:10389000012822DB94F9B20100281ED136B2704211
:1038A00004EB8000D0F8A81149B236B2704204EBA4
:1038B0008000D0F8AC0140B200F086FB04280CDB9D
:1038C00036B2704204EB8000D0F8A801801C36B2FA
:1038D000714204EB8101C1F8AC0136B2704204EBD5
:1038E0008000D0F8AC1136B2704204EB8000D0F802
:1038F000A801091A012913DAD4F8C40101280FDB41
:1039000094F9B20100280BD136B2704204EB80006A
:10391000D0F8A80136B2714204EB8101C1F8AC01C4
:1039200036B2704204EB8000D0F8AC1136B270426F
:1039300004EB8000D0F8A801091A012926DAD4F88E
:10394000C401002822D594F9B20100281ED136B254
:10395000704204EB8000D0F8A81149B236B2704230
:1039600004EB8000D0F8AC0140B200F02DFB04283D
:103970000CDB36B2704204EB8000D0F8A801801E48
:1039800036B2714204EB8101C1F8AC01D4F8C40134
:1039900000280FD194F9B20100280BD136B2704241
:1039A00004EB8000D0F8A80136B2714204EB81012B
:1039B000C1F8AC0136B2704204EB8000D0F8AC0123
:1039C000C4F8BC00761E3FE694F8B30184F8B40155
:1039D00094F8C80184F8C90194F8CA0184F8CB01AD
:1039E00094F8B70184F8B80194F8B90184F8BA01E1
:1039F00094F9B701062803DB94F9B901062807DA20
:103A000094F9B701152803DA94F9B90115280ADBEE
:103A100094F9B70194F9B9110818022190FBF1F05B
:103A200084F8BC0102E0002084F8BC0194F8B501E0
:103A300084F8B601D4F8C001C4F8C40170BD10B454
:103A40000200D1F8BC00401E03001BB2042B58DB5F
:103A5000DFF8E009502412FB04F420441BB2C05CE0
:103A600001280BD1DFF8CC09502412FB04F42044C8
:103A70001BB2184410F8010C002815D0DFF8B40967
:103A8000502412FB04F420441BB2C05C002820D157
:103A9000DFF8A009502412FB04F420441BB21844A0
:103AA00010F8010C002814D1012081F87C001800C6
:103AB000401E12B254420C4484F87B0012B2D2F180
:103AC0003B000A2804DB91F8C801401C81F8C801BA
:103AD00017E01BB2042B12D112B2D2F13B000A281C
:103AE00004DB91F8B701401C81F8B701002081F890
:103AF0007C00002012B254420C4484F87B005B1E10
:103B0000A3E7D1F8BC0003001BB24C2B55DADFF859
:103B10002409502412FB04F420441BB2C05C012889
:103B20000AD1DFF81009502412FB04F420441BB220
:103B300018444078002814D0DFF8F808502412FB0D
:103B400004F420441BB2C05C00281ED1DFF8E40856
:103B5000502412FB04F420441BB21844407800287F
:103B600013D1012081F8B900581C12B254420C4400
:103B700084F8B80012B2D2F13B000A2804DB91F8B5
:103B8000CA01401C81F8CA0117E01BB24B2B12D1AD
:103B900012B2D2F13B000B2804DB91F8B901401CB2
:103BA00081F8B901002081F8B900502012B25442C6
:103BB0000C4484F8B8005B1CA6E710BC704738B50D
:103BC00004000D002900200000B2FFF738FF95F92E
:103BD0007C00002820D095F9B90000281CD00120D5
:103BE00085F8B20195F8B301401C85F8B30124B201
:103BF0006042284490F97B0024B26142294491F943
:103C0000B81041FA80F0022190FBF1F024B2614239
:103C100005EB8101C1F8AC0195F97C00002825D1A4
:103C200095F9B900002821D1002085F8B20124B20D
:103C3000D4F13B002D2804DA95F8B501401C85F835
:103C4000B50124B26042284490F97B0024B261425D
:103C5000294491F9B81041FA80F0022190FBF1F06B
:103C600024B2614205EB8101C1F8AC0195F97C00F9
:103C7000002817D195F9B900002813D0002085F845
:103C8000B20124B26042284490F9B81024B26042D4
:103C9000284490F93F00091A24B2604205EB8000E5
:103CA000C0F8AC1195F97C00002818D095F9B9003E
:103CB000002814D1002085F8B20124B260422844C3
:103CC00090F97B0024B26142294491F93F1041FAF6
:103CD00080F024B2614205EB8101C1F8AC0124B24D
:103CE000604205EB8000D0F8AC01C5F8BC0031BDE6
:103CF00038B504000D002900200000B2FFF79FFE38
:103D000095F97C00002820D095F9B90000281CD036
:103D1000012085F8B20195F8B301401C85F8B30184
:103D200024B26042284490F97B0024B261422944C5
:103D300091F9B81041FA80F0022190FBF1F024B221
:103D4000614205EB8101C1F8AC0195F97C000028C6
:103D500018D195F9B900002814D1002085F8B201D6
:103D600024B2D4F13B002D2804DA95F8B501401CAB
:103D700085F8B501D5F8BC0024B2614205EB81019C
:103D8000C1F8AC0195F97C00002843D195F9B90040
:103D900000283FD0002085F8B20124B2D4F13B00C6
:103DA0001E2822DAD5F8BC0024B26142294491F9D8
:103DB000B81040FA81F124B26042284490F9B7006B
:103DC000091A24B26042284490F93E0041FA80F179
:103DD00024B26042284490F93F00091A24B260429C
:103DE00005EB8000C0F8AC1114E0D5F8BC0024B29B
:103DF0006142294491F9B81040FA81F124B260423D
:103E0000284490F9B700091A24B2604205EB8000FB
:103E1000C0F8AC1195F97C00002843D095F9B900A1
:103E200000283FD1002085F8B20124B2D4F13B0034
:103E30001E2822DAD5F8BC0024B26142294491F947
:103E40007B1040FA81F124B26042284490F97A0054
:103E5000091A24B26042284490F93E00091A24B29B
:103E60006042284490F93F0041FA80F024B2614258
:103E700005EB8101C1F8AC0114E0D5F8BC0024B217
:103E80006142294491F97B1040FA81F124B26042E9
:103E9000284490F97A00091A24B2604205EB8000A8
:103EA000C0F8AC11D5F8BC0024B2614205EB810129
:103EB000D1F8AC1188422BDAD5F8BC1049B224B243
:103EC000604205EB8000D0F8AC0140B200F07CF815
:103ED00005281DDA24B2D4F13B00142818DA24B2E4
:103EE000D4F13B00052813DBD5F8C01124B2B4F19E
:103EF00027004118C5F8C01195F9B201012807D172
:103F0000D5F8C01124B2B4F127004118C5F8C0118A
:103F100024B2604205EB8000D0F8AC01D5F8BC10AB
:103F2000884229DAD5F8BC1049B224B2604205EBC8
:103F30008000D0F8AC0140B200F046F805281BDA4A
:103F400024B2D4F13B00142816DA24B2D4F13B0099
:103F5000052811DBD5F8C001273024B2001BC5F8B5
:103F6000C00195F9B201012806D1D5F8C00127306A
:103F700024B2001BC5F8C00124B2604205EB8000EA
:103F8000D0F8AC01C5F8BC0031BD10B40021DFF899
:103F9000B034196000210A003C2A13DADFF8A014BB
:103FA0000B6800EB8201D1F8C040273CDFF8941485
:103FB00051F822104C4313EB4403DFF884140B60D8
:103FC000521CE9E710BC704710B4020013000C004B
:103FD0005BB264B2A34202DB531A180001E08B1AF1
:103FE000180040B210BC704770B50400DFF8586488
:103FF000002005002DB23C2D14DA300000F054FAF8
:10400000DFF84824DFF84834FDF770FF00F070FA5D
:104010000600300000F0A0FA2DB204EB0501087193
:104020006D1CE7E770BD0000A011FF1FF033FF1FFC
:10403000A810FF1F1004FF1F5434FF1FA811FF1FFB
:1040400080B5DFF8100490F90000002840F0AA8045
:10405000DFF8040490F90000002840F0A38001205C
:104060000090DFF8F8030378C7A20021502000F089
:10407000C6FC01200090DFF8E8030368DFF8E423C2
:104080000121502000F0BBFC01200090DFF8D80394
:10409000D0E9020100F02CFA0300BCA2022150205A
:1040A00000F000FE01200090DFF8BC03D0E906011B
:1040B00000F01EFA0300B6A20321502000F0F2FD2A
:1040C00001200090DFF8A4030368B2A2042150206D
:1040D00000F095FC01200090DFF894030368ADA286
:1040E0000521502000F08BFC01200090DFF88403B4
:1040F00090F9B031C4A20621502000F080FC0120CC
:104100000090DFF83C030368C0A20721502000F0B4
:1041100076FCDFF864030078002805D10123BCA2F7
:104120000021562000F017FDDFF84C03007801282D
:1041300005D10123B6A20121622000F00CFDDFF8B9
:1041400038030078022805D10123B1A202215620AC
:1041500000F001FDC8480078032805D10123ACA276
:104160000321562000F0F7FCC3480078042805D14D
:104170000123A7A20421562000F0EDFCBE480078E0
:10418000052805D10123A2A20521562000F0E3FC59
:10419000B9480078062805D101239DA206215620A2
:1041A00000F0D9FCAB4890F9000001284AD1AA4898
:1041B00090F90000002845D101200090AD48D0F8CA
:1041C000C43194A20121502000F019FC012000907C
:1041D000A84890F9B43190A20221502000F00FFCC1
:1041E00001200090A34890F9B7318CA20321502000
:1041F00000F005FC012000909E4890F9B93188A29A
:104200000421502000F0FBFB01200090994890F918
:10421000BC319A4A0521502000F0F1FB01200090AA
:10422000944890F9C9317FA20621502000F0E7FBA5
:10423000012000908F4890F9CB317BA207215020BC
:1042400000F0DDFB834890F90000002877D1824818
:1042500090F90000012872D101200090884803687D
:1042600072A20021502000F0CAFB01200090854876
:10427000D0E9020100F03CF9030044A201215020E2
:1042800000F010FD012000907E48D0E9040100F00C
:104290002FF9030066A20221502000F003FD012047
:1042A00000907848D0E9060100F022F9030038A216
:1042B0000321502000F0F6FC0120009071480368B3
:1042C00034A20421502000F09AFB012000905C48A9
:1042D00003684EA20621502000F091FB01200090BF
:1042E00069480368694A0721502000F088FB684844
:1042F0000078002805D1012345A20121562000F0B5
:104300002AFC63480078012805D1012340A202213C
:10431000562000F020FC5E480078022805D10123D9
:104320003BA20321562000F016FC594800780328D0
:1043300005D1012336A20421562000F00CFC45488B
:1043400090F9000001285DD1434890F90000012850
:1043500058D101234F4A0021502000F0FCFB0123DB
:104360004D4A0121502000F0F6FB01234B4A022167
:10437000502000F0F0FB0123494A0321502000F0B7
:10438000EAFB01232CA207E0472000005020000098
:1043900044200000562000000421502000F0DBFBE8
:1043A00040480078002805D1012324A20021502094
:1043B00000F0D1FB3B480078012805D101231FA262
:1043C0000121502000F0C7FB36480078022805D1B3
:1043D00001231AA20221502000F0BDFB31480078D1
:1043E000032805D1012315A20321502000F0B3FBBF
:1043F0002C480078042805D1012310A20421502064
:1044000000F0A9FB01BD00BF483A0000453A00009A
:104410003A00000044493A0041563A00434C3A0001
:1044200043523A004C423A0052423A00563A000097
:1044300049200000CC15FF1F202000002D3E000069
:10444000A411FF1F4804FF1F0000F0411F85EB511E
:10445000B81ED5BF5E34FF1F5F34FF1F340EFF1F31
:104460003404FF1F809F0000D010FF1F9411FF1F16
:104470002804FF1FA811FF1F5534FF1F889F00004D
:104480009C11FF1FF810FF1F2004FF1F909F0000CA
:104490005634FF1F2C9F0000989F0000389F00009B
:1044A000449F00005734FF1FC0F3C75181B1FF295B
:1044B00006D0C110400721F0E04101F16051704782
:1044C00041020CBF40F4E0016FF000410020704752
:1044D00000F0004100020AD0B0FA80FC00FA0CF0B3
:1044E00001F16051A1EB0C5101EBD0214005704767
:1044F00001F000428B1AA3F16051B1F5801F0ADB75
:10450000B1F17F6F1FD242EAC102C10071F10041D7
:1045100042EB507070470B15C3F10903212B10D2E9
:10452000890241EA905180020128494141F000414D
:1045300021FA03F0C3F12003994071F10041504189
:104540007047100070476FF0000013EB103F5CBF26
:10455000000E42EAC0507047C0F3C7517E390EDDED
:10456000C217D1F1200106DD000240F00040C84032
:10457000104450407047D04380F000407047002006
:104580007047000038B50400082501214E2000F0D6
:1045900098FC00BF00BF00BF00BF00BF00BF00BF4E
:1045A00000BF00214B2000F08CFC00BF00BF00BF0B
:1045B00000BF00BF00BF00BF00BF2800451EC0B243
:1045C000002824D0200604D501214C2000F079FCDD
:1045D00003E000214C2000F074FC01214B2000F08E
:1045E00070FC00BF00BF00BF00BF00BF00BF00BF26
:1045F00000BF00214B2000F064FC00BF00BF00BFE3
:1046000000BF00BF00BF00BF00BF6400D5E731BDE1
:1046100038B50400082500214E2000F052FC00BFF0
:1046200000BF00BF00BF00BF00BF00BF00BF002130
:104630004B2000F046FC00BF00BF00BF00BF00BF22
:1046400000BF00BF00BF2800451EC0B2002824D014
:10465000200604D501214C2000F033FC03E00021AA
:104660004C2000F02EFC01214B2000F02AFC00BF62
:1046700000BF00BF00BF00BF00BF00BF00BF0021E0
:104680004B2000F01EFC00BF00BF00BF00BF00BFFA
:1046900000BF00BF00BF6400D5E731BD38B50400DE
:1046A0000D00B5F15000C0B2FFF7B2FF2000C0B25C
:1046B000000950F01000C0B2FFF7AAFF14F00F007D
:1046C00050F00100C0B2FFF7A3FF31BD70B5040088
:1046D00000200500EDB2082D17DAB5F15000C0B288
:1046E000FFF796FF0120FFF793FF1020FFF790FFE1
:1046F00000200600F6B2802E05DA2000C0B2FFF7D7
:1047000041FF761CF6E76D1CE4E770BD80B5012221
:1047100001214B2000F076FB012201214E2000F008
:1047200071FB012201214C2000F06CFB00220121D1
:104730004D2000F067FB642000F074FC00214D2048
:1047400000F0BFFB642000F06DFC01214D2000F063
:10475000B8FBAE20FFF75CFF0020FFF759FF1020E9
:10476000FFF756FF4020FFF753FF8120FFF750FF70
:10477000CF20FFF74DFFA120FFF74AFFC820FFF72A
:1047800047FFA620FFF744FFA820FFF741FF3F2087
:10479000FFF73EFFD320FFF73BFF0020FFF738FF76
:1047A000D520FFF735FF8020FFF732FFD920FFF734
:1047B0002FFFF120FFF72CFFDA20FFF729FF12204F
:1047C000FFF726FFDB20FFF723FF4020FFF720FF46
:1047D0002020FFF71DFF0220FFF71AFF8D20FFF7B3
:1047E00017FF1420FFF714FFA420FFF711FFA620E6
:1047F000FFF70EFFAF20FFF70BFF0020FFF766FF6C
:1048000000210020FFF74AFFDFF89004FDF716FFB4
:1048100001BD2DE9F84F05000C001600200080B204
:10482000C008ADF80200A4B22000082190FBF1F20C
:1048300001FB1200ADF80000002007003800BDF8B1
:10484000021080B2884236D23900C9B20020FFF788
:1048500025FFF8008246002080464046310080B2A5
:1048600089B2884225D200208346002081461FFA63
:1048700089F9B9F1080F15DA5FFA8BFB5FEA5B0B78
:104880001FFA89F919FA8AF0B6B2704328441FFA60
:1048900088F810F80800002801D05BF0800B19F1AF
:1048A0000109E4E75846C0B2FFF76CFE18F10108B1
:1048B000D3E77F1CC2E73900C9B20020FFF7EEFE44
:1048C000F8008246002080464046310080B289B21E
:1048D00088422ED200208346002081464846BDF8FB
:1048E000001080B2884215D25FFA8BFB5FEA5B0B47
:1048F0001FFA89F919FA8AF0B6B2704328441FFAF0
:1049000088F810F80800012801D15BF0800B19F13C
:104910000109E3E75FFA8BFBBDF80000D0F1080066
:104920005BFA00FB5846C0B2FFF72CFE18F10108F5
:10493000CAE7BDE8F18FF0B40026C0B2802802DAE1
:10494000C9B2402900DB34E0C9B2082391FBF3F37C
:10495000D3F107031C00C9B2082391FBF3F703FB53
:1049600017131D000127D5F107039F403E00D2B267
:10497000002A0FD0DFF87C34C0B203EBC003E4B2EE
:10498000DFF87074C0B207EBC007E4B23F5D374395
:104990001F550EE0DFF85C34C0B203EBC003E4B295
:1049A000DFF85074C0B207EBC007E4B23F5DB74315
:1049B0001F55F0BC704738B500200400E4B2082C45
:1049C0001CDAB4F15000C0B2FFF722FE0020FFF75E
:1049D0001FFE1020FFF71CFE00200500EDB2802D09
:1049E0000ADADFF81004EDB200EBC500E4B2005DB6
:1049F000FFF7C8FD6D1CF1E7641CDFE731BD2DE951
:104A0000F04F85B082460D0016001F000E9C5FF02F
:104A100000085FF000095FF0000B3B003200DFF898
:104A2000D813684600F00AFBE4B22000012802D047
:104A3000022840D08CE068465FFA8BFB10F80B0030
:104A4000002837D068465FFA8BFB10F80B0020383F
:104A500080465FFA8AFABAF17F0F2BDA2900C9B2D1
:104A60005046C0B2FFF71AFE002081465FFA89F96E
:104A7000B9F1060F19DA5FFA8AFABAF1790F04DB95
:104A80005FFA89F9B9F1050F0CDA85485FFA88F801
:104A9000062101FB08F108445FFA89F910F80900C2
:104AA000FFF770FD19F10109E0E71AF1060A1BF1A1
:104AB000010BC0E74CE068465FFA8BFB10F80B0077
:104AC000002845D068465FFA8BFB10F80B002038B1
:104AD00080465FFA8AFABAF1790F39DA2900C9B249
:104AE0005046C0B2FFF7DAFD002081465FFA89F92F
:104AF000B9F1080F0CDABD485FFA88F85FFA89F956
:104B000019EB0811405CFFF73DFD19F10109EDE7D4
:104B1000691CC9B25046C0B2FFF7C0FD00208146F3
:104B20005FFA89F9B9F1080F0DDAB0485FFA88F831
:104B30005FFA89F919EB08110844007AFFF722FDA2
:104B400019F10109ECE71AF1080A1BF1010BB2E7B0
:104B500005B0BDE8F08F2DE9F04786B004000D00E8
:104B600016001F005FF000085FF000095FF0000A08
:104B700032009FA1684600F061FAFFB238000128B8
:104B800002D002283BD084E068465FFA8AFA10F827
:104B90000A00002832D068465FFA8AFA10F80A0044
:104BA00020388046E4B27F2C28DA2900C9B22000E0
:104BB000C0B2FFF773FD002081465FFA89F9B9F1B1
:104BC000060F17DAE4B2792C04DB5FFA89F9B9F140
:104BD000050F0CDA32485FFA88F8062101FB08F16C
:104BE00008445FFA89F910F80900FFF7CBFC19F1C6
:104BF0000109E2E7A41D1AF1010AC5E749E0684688
:104C00005FFA8AFA10F80A00002842D068465FFA74
:104C10008AFA10F80A0020388046E4B2792C38DA93
:104C20002900C9B22000C0B2FFF738FD002081463C
:104C30005FFA89F9B9F1080F0CDA6C485FFA88F865
:104C40005FFA89F919EB0811405CFFF79BFC19F139
:104C50000109EDE7691CC9B22000C0B2FFF71EFDD3
:104C6000002081465FFA89F9B9F1080F0DDA5F4833
:104C70005FFA88F85FFA89F919EB08110844007A9D
:104C8000FFF780FC19F10109ECE708341AF1010A79
:104C9000B5E706B0BDE8F08700000000289E0000E0
:104CA000EC9600002DE9F04F87B005000E0093460A
:104CB0009A46109C00275FF000085FF000095046FC
:104CC000FFF7F2FBCDE900015A464C4902A800F07B
:104CD000B5F9E4B22000012802D002283AD081E0E0
:104CE00002A85FFA89F910F80900002831D002A85B
:104CF0005FFA89F910F8090020380700EDB27F2D1E
:104D000027DA3100C9B22800C0B2FFF7C7FC002083
:104D100080465FFA88F8B8F1060F16DAEDB2792D01
:104D200004DB5FFA88F8B8F1050F0BDA3448FFB2FC
:104D3000062101FB07F108445FFA88F810F8080023
:104D4000FFF720FC18F10108E3E7AD1D19F1010997
:104D5000C6E747E002A85FFA89F910F809000028C1
:104D600040D002A85FFA89F910F80900203807003E
:104D7000EDB2792D36DA3100C9B22800C0B2FFF7A2
:104D80008DFC002080465FFA88F8B8F1080F0BDA36
:104D90001648FFB25FFA88F818EB0711405CFFF77E
:104DA000F1FB18F10108EEE7711CC9B22800C0B28E
:104DB000FFF774FC002080465FFA88F8B8F1080F0E
:104DC0000CDA0A48FFB25FFA88F818EB07110844BA
:104DD000007AFFF7D7FB18F10108EDE7083519F164
:104DE0000109B7E707B0BDE8F08F0000B08A000006
:104DF00025730000A028FF1F509F00005C9F00004B
:104E0000EC96000070B506000C0015004FF48071A0
:104E10003000C0B200F032F964B2002C13D1674800
:104E2000F6B23100491150F821106448F6B2320050
:104E3000521150F822004269012316F01F008340EE
:104E40009A434A613CE05D48F6B23100491150F89E
:104E500021105A48F6B23200521150F8220042692D
:104E6000012316F01F0083401A434A61EDB2002D62
:104E700013D15248F6B23100491150F821000168AF
:104E8000012216F01F00824091434C48F6B23200D6
:104E9000521150F82200016012E04848F6B2310089
:104EA000491150F821000168012216F01F008240CC
:104EB00011434248F6B23200521150F8220001600C
:104EC00070BD38B505000C003C48EDB22900491111
:104ED00050F82100406915F01F01C840C00703D4F5
:104EE0006321374800F03DF9E4B2002C13D1334878
:104EF000EDB22900491150F821000168012215F096
:104F00001F00824091432D48EDB22A00521150F803
:104F10002200016012E02948EDB22900491150F841
:104F200021000168012215F01F008240114323482F
:104F3000EDB22A00521150F82200016031BD10B5C7
:104F400004001E48E4B22100491150F821004069D4
:104F500014F01F01C840C00703D47B21184800F09B
:104F600000F91648E4B22100491150F8211001223D
:104F700014F01F008240CA6010BD10B504000F4835
:104F8000E4B22100491150F82100406914F01F01DA
:104F9000C840C00703D58C21094800F0E2F8074853
:104FA000E4B22100491150F82100006914F01F04F7
:104FB000E04010F0010010BD000000004C0CFF1F8D
:104FC000D09A000030B4134C246854F08074114D12
:104FD0002C60114C246854F001040F4D2C600F4CD0
:104FE000246821000E4C24684FF47A7594FBF5F484
:104FF00004FB00F423005C1822008A4203D2074C11
:105000002468A242FBD3054C24689442FBD330BCF5
:1050100070470000FCED00E0001000E0041000E02C
:10502000A02CFF1F10B504002000441E002804D04F
:105030004FF47A70FFF7C6FFF6E710BD0CB430B539
:1050400083B0044606A802900A4600250194009504
:1050500002AB01A9084878441E30FDF703FB019913
:105060000D7000284EBF04460198041B204603B073
:1050700030BC5DF80CFB00BF6BCEFFFF10B42C4AB8
:1050800013684FF400740200D2B2520994402343D3
:10509000274A1360274AC0B203005B1152F823303D
:1050A000012410F01F029440C3F8A040214AC0B26E
:1050B00003005B1152F82320C0B210F01F0342F826
:1050C000231010BC704710B4194A13684FF40074D1
:1050D0000200D2B2520994402343154A1360154A84
:1050E000C0B203005B1152F82330012410F01F02FC
:1050F0009440C3F8A04031F4E0610E4AC0B203000E
:105100005B1152F82320C0B210F01F0352F8232085
:1051100012F4E0621143074AC0B203005B1152F877
:105120002320C0B210F01F0342F8231010BC7047B8
:1051300038800440A80CFF1FDFF800F0650EFF1F49
:10514000DFF800F08D0EFF1FBFF34F8F4D48016851
:1051500011F4E0614C4801434A480160BFF34F8FAE
:10516000FEE738B504000D00002000F09DF82A008D
:1051700021004648FDF762FA002000F0B2F84FF433
:105180007A70FFF74FFFF2E738B504000D002100F9
:1051900049B2032000F0D5F9200032BD10B500243B
:1051A000062000F00BFA062000F03EFA002841D15C
:1051B000002000F079F8062000F036FA012801D12D
:1051C00001200400002000F08CF83148FDF736FA89
:1051D0004FF4FA70FFF726FFE4B2012CEBD1062062
:1051E00000F022FA0028E6D1062000F01DFA00287F
:1051F00006D1002000F075F86420FFF713FFF3E7F5
:10520000062000F011FA012806D1002000F069F80C
:105210003220FFF707FFF3E71E48FDF70FFAFFF70D
:105220008BFF6420FFF7FEFE0020FFF789FFFFF7EA
:105230008BFFC0E710BD10B517480468012000F0CF
:1052400033F8012000F04DF81448E4B20F2101FBBF
:1052500004F100EB0102E4B221001148FDF7EEF980
:1052600000220121002000F0A0FB002202210020EA
:1052700000F09BFB00200B4908604FF47A70FFF7A9
:10528000D1FEDEE70CED00E00400FA05889D000089
:10529000E89E0000BC9D000004ED00E03805FF1F03
:1052A000249D00009411FF1F10B5040064B2042C6B
:1052B00007DA012201210F4864B2005DFFF7A2FD69
:1052C0000EE0042004002000441E40B2002807D055
:1052D00001220121074864B2005DFFF793FDF2E768
:1052E00010BD10B50400034864B2005DFFF727FE4F
:1052F00010BD0000EC0CFF1F012210F01F018A40BE
:10530000DFF89C1240B203005B0941F8232070478C
:105310002DE9F84304000D0064B2002C08D0022CE3
:105320002CD018D3042C4FD03BD3052C5FD071E088
:10533000DFF87002006850F48060DFF868120860DF
:105340004FF440716620FFF799FE4FF440716720DB
:10535000FFF794FE5EE0DFF84C02006850F4006056
:10536000DFF8401208604FF440714320FFF786FEDB
:105370004FF440714420FFF781FE4BE0DFF8240238
:10538000006850F48050DFF81C1208604FF4407140
:105390006320FFF773FE4FF440716220FFF76EFE4B
:1053A00038E0DFF80002006850F40050DFF8F41134
:1053B00008604FF440715020FFF760FE4FF44071D9
:1053C0005120FFF75BFE25E0DFF8DC01006850F4B8
:1053D0008060DFF8D41108604FF440714E20FFF771
:1053E0004DFE4FF440714F20FFF748FE12E0DFF80A
:1053F000B801006850F40060DFF8AC1108604FF4A9
:1054000040718920FFF73AFE4FF440718820FFF782
:1054100035FEFFE7DFF8940164B250F82400C0784D
:1054200010F0F300DFF8841164B251F82410C87052
:10543000DFF8780164B250F824008078DFF86C114E
:1054400064B251F82410887064B2002C02D064B2A7
:10545000012C07D1DFF8580101684FF47A704143FD
:10546000894605E0534801684FF47A704143894604
:105470002801B9FBF0F00600B6B2B6F5005F02DB1A
:1054800041F6FF700600B9FBF5F0B6B2B0EB0610BE
:105490000700BFB2202F04DB40F203114648FFF79C
:1054A00060FE424864B250F82400007810F0E0003A
:1054B0008046C6F3042050EA08003C4964B251F823
:1054C00024100870394864B250F8240046703748F8
:1054D00064B250F82400807A10F0E000804617F0A3
:1054E0001F0050EA0800314964B251F82410887254
:1054F0002E4864B250F82400007C50F088002B49FC
:1055000064B251F824100874284864B250F824009A
:10551000C07850F00C00254964B251F82410C870CE
:10552000BDE8F183214A40B252F820201279920658
:10553000F8D51E4A40B252F8202092F907200A708E
:1055400070471A4A40B252F8202012791206F8D554
:10555000164A40B252F82020D1717047010013481A
:1055600049B250F82100807D002801D0012000E0E0
:105570000020704710B504000C4864B250F82400B5
:10558000C07850F02000094964B251F82410C87066
:1055900064B260002D3040B2FFF7AEFE10BD0000D7
:1055A00000E100E03480044028800440BC0CFF1F70
:1055B000A02CFF1FA82CFF1F2C9B000010B504007F
:1055C00064B2092C0DDA00220021504864B2005D5B
:1055D000FFF718FC03214D4864B2005DFFF773FD2F
:1055E00014E0092004002000441E40B200280DD021
:1055F00000220021454864B2005DFFF703FC03214F
:10560000424864B2005DFFF75EFDECE710BD10B5E7
:1056100004003E4864B2005DFFF7AFFC002801D1F2
:10562000002000E0012010BD10B50400200040B2B1
:10563000FFF7EDFF00280AD10A20FFF7F3FC200056
:1056400040B2FFF7E4FF002801D1002000E0012074
:1056500010BD10B5040064B2002C02D001202C490A
:1056600008702B4890F90000002835D00020FFF783
:10567000CEFF00280ED00120FFF7C9FF002809D077
:105680000220FFF7C4FF002804D00320FFF7BFFF6C
:10569000002821D10A20FFF7C5FC00201C49087012
:1056A0000020FFF7B4FF002801D100202CE00120EA
:1056B000FFF7ADFF002801D1012025E00220FFF710
:1056C000A6FF002801D102201EE00320FFF79FFF64
:1056D000002818D1032017E00020FFF798FF0128C9
:1056E00011D10120FFF793FF01280CD10220FFF711
:1056F0008EFF012807D10320FFF789FF012802D17F
:105700000120034908700A2010BD0000E00CFF1FB3
:10571000380EFF1F38B504000D0064B2002C03D012
:10572000022C66D049D380E0DFF8C004006850F056
:105730008070DFF8B81408606DB2002D0BD0022D18
:1057400015D00ED3042D1ED017D3062D27D020D36D
:10575000072D2AD02FE04FF480614120FFF78EFC07
:105760002AE04FF440710420FFF788FC24E04FF456
:1057700040710520FFF782FC1EE04FF440710620C7
:10578000FFF77CFC18E04FF440710720FFF776FC30
:1057900012E04FF480616520FFF770FC0CE04FF4DD
:1057A00080616620FFF76AFC06E04FF480616720A5
:1057B000FFF764FC00E038E037E0DFF83004006811
:1057C00050F00070DFF8241408606DB2002D02D094
:1057D000012D06D00BE04FF440710C20FFF74EFC7A
:1057E00006E04FF440710D20FFF748FC00E01CE09C
:1057F0001BE0DFF8FC03006850F08070DFF8F01366
:1058000008606DB2002D02D0012D06D00BE04FF4E0
:1058100040710A20FFF732FC06E04FF440710B2084
:10582000FFF72CFC00E000E0FFE731BD2DE9F84F69
:1058300004000D0016001F0064B2002C0DD064B2ED
:10584000012C02D064B2022C02D16DB2022D04DB15
:10585000FC21DFF8A003FFF784FC290049B22000F7
:1058600040B2FFF757FFDFF8900301684FF47A70FA
:10587000414388464046000CB0FBF6F081460020CC
:1058800082461FFA89F9484650FA0AF0012802DBDD
:105890001AF1010AF5E75FFA8AFABAF1080F05DB97
:1058A00040F21711DFF84C03FFF75BFC404630FA7B
:1058B0000AF0B0FBF6F0814664B2002C03D0022C53
:1058C00018D00CD322E01FFA89F919F1010000FB6E
:1058D00007F04FF47A71B0FBF1F0834616E01FFA3F
:1058E00089F919F1010000FB07F06421B0FBF1F028
:1058F00083460BE01FFA89F919F1010000FB07F05C
:1059000042F21071B0FBF1F08346FFE7DFF8EC02E2
:1059100064B250F824006DB200EBC500DFF8DC1271
:1059200064B251F824106DB201EBC501C96831F0C1
:105930000401C160DFF8C40264B250F824006DB203
:1059400000EBC5002821C1605FFA8AFA1AF007004F
:1059500050F00800DFF8A41264B251F82410086077
:105960001FFA89F9DFF8940264B250F82400C0F8F5
:1059700008900020DFF8841264B251F82410C86443
:10598000DFF8780264B250F824006DB200EBC50075
:105990001FFA8BFBC0F810B00020DFF8601264B271
:1059A00051F824104860BDE8F18F2DE9F041050061
:1059B0000E00170000246DB2002D0ED06DB2012D27
:1059C00002D06DB2022D02D176B2022E05DB4FF469
:1059D000A971DFF82002FFF7C4FB6DB2002D03D0E0
:1059E000022D15D00BD31EE040F2E930874205D3DB
:1059F00040F25711DFF8FC01FFF7B3FB13E0652F0E
:105A000005D340F25B11DFF8EC01FFF7AAFB0AE0D7
:105A100042F21170874205D340F25F11DFF8D401E2
:105A2000FFF79FFBFFE7DFF8D4016DB250F82500C8
:105A300080680400002CF6D06DB2002D03D0022D3A
:105A400012D009D319E0601C00FB07F04FF47A7103
:105A5000B0FBF1F0804610E0601C00FB07F0642111
:105A6000B0FBF1F0804608E0601C00FB07F042F25A
:105A70001071B0FBF1F08046FFE7DFF880016DB2F6
:105A800050F8250076B200EBC600C0F81080BDE8E3
:105A9000F08110B5040064B2012C07D064B2022C6E
:105AA00004D040F21D215348FFF75BFB64B2200095
:105AB000012802D0022811D021E04C48006850F0A3
:105AC00000704A4908604FF4E0610C20FFF7D6FAF5
:105AD0004FF4E0610D20FFF7D1FA15E0444800686B
:105AE00050F08070424908604FF4C0610A20FFF70F
:105AF000C5FA4FF4C0610B20FFF7C0FA04E040F292
:105B000065213C48FFF72DFB3C4864B250F8240067
:105B1000406D50F00400394964B251F824104865D2
:105B2000364864B250F82400D0F8800050F00800E5
:105B3000324964B251F82410C1F8800000202F4986
:105B400064B251F82410C8644FF6FF702B4964B258
:105B500051F824108860294864B250F82400D0F825
:105B6000800050F00100254964B251F82410C1F8BA
:105B70008000224864B250F82400406D50F00100CB
:105B80001E4964B251F82410486500201B4964B2D4
:105B900051F82410486010BD38B5040064B2012CDF
:105BA00007D064B2022C04D040F282211148FFF7E2
:105BB000D8FA124864B250F8240040680500280062
:105BC00000B232BD10B5040064B2012C07D064B23B
:105BD000022C04D04FF424710648FFF7C2FA0020CB
:105BE000064964B251F82410486010BD3C8004405E
:105BF00030800440E09B0000A82CFF1F400CFF1FDA
:105C000080B5B74890F90000012820D1B548D0E907
:105C10000023B548B549FCF769F9B24AC2E9000169
:105C2000B048D0E900010022B14BFCF7EFFC16D8D8
:105C3000B04890F90010B048FCF700FD0020AD49D5
:105C4000087000200021A74AC2E9000107E00020F7
:105C50000021A44AC2E900010020A6490870A74813
:105C6000006800280DD00120A5490870A548D0E99A
:105C700000239D489D49FCF739F9A24AC2E9000179
:105C800015E00020A04948609D4890F900000128D7
:105C90000DD19C48D0E900239C48FCF7CFFC0020A4
:105CA0000021984AC2E90001002095490870DFF8F8
:105CB000180C006850F00100DFF80C1C086001BDF2
:105CC00080B5DFF80C0B90F90000012829D1FCF712
:105CD000A3F8DFF8000BD0E9002383488349FCF7E1
:105CE00005F9DFF8F02AC2E90001DFF8E80AD0E997
:105CF0000001DFF8E42ADFF8E43AFCF787FC10D86B
:105D000000200021DFF8CC2AC2E900010020DFF8E2
:105D1000C01A0870002079490860DFF8C40AFCF74F
:105D20008DFCDFF8C00A90F90000012821D1DFF8CE
:105D3000B80AD0E900236C486C49FCF7D7F8DFF8C3
:105D4000A82AC2E90001DFF8A00AD0E90001DFF8C3
:105D50009C2AD2E90023FCF759FC10D8002000212E
:105D6000DFF8842AC2E900010020DFF8781A087001
:105D700005E000200021DFF8702AC2E90001DFF809
:105D8000700A90F9000001280CD1DFF8680AD0E908
:105D9000002355485549FCF7A9F8DFF8582AC2E90D
:105DA000000105E000200021DFF8482AC2E90001D7
:105DB0000120FFF7F1FE4042DFF8101B0860DFF81A
:105DC0000C0B0068DFF8081B4880DFF8080B90F91F
:105DD0000000012802D100F01AF80CE000204A4926
:105DE0004860002201210020FFF7DFFD0022022190
:105DF0000020FFF7DAFD0120FFF7E4FEDFF8D80A04
:105E0000006850F00100DFF8D01A086001BD80B5CD
:105E1000DFF8C80A0068DFF8C81A0968884211DB91
:105E2000DFF8C00A90F9000001280BD1DFF8B80AAA
:105E3000026801210020FFF7B8FD002202210020A6
:105E4000FFF7B3FDDFF8840A006800F0E9FEDFF831
:105E50009C1A09684018DFF8941A0860DFF8900A65
:105E60000068DFF8881A0968884205DADFF8800AD6
:105E70000068DFF8781A0860DFF8700A0068DFF859
:105E8000701A0968C84206DADFF8640A00684042FE
