:10000000F8FF0020110400006B2300006B230000A8
:100010006B2300006B2300006B2300006B230000A8
:100020006B2300006B2300006B2300006B23000098
:100030006B2300006B2300006B2300006B23000088
:100040006B2300006B2300006B2300006B23000078
:10040000FFFFFFFFFFFFFFFFFFFFFFFFFEFFFFFFFD
:1004100062B606F09DFAFEE710B50020DFF8B01BCB
:1004200008600020DFF8AC1B08702820DFF8A81B4C
:1004300008700020DFF8A41B08705020DFF8A01B14
:1004400008700020DFF89C1B08700020DFF8981B64
:1004500008702820DFF8941B08700020DFF8901B3C
:1004600008700020DFF88C1B08700020DFF8881B64
:1004700008700020DFF8841B08700020DFF8801B64
:1004800008700020DFF87C1B08700020DFF8781B64
:1004900008703B20040024B2002C00F1CE8124B26D
:1004A000392C25DB200000B200F07CFADFF8200BAD
:1004B0000068DFF8241B24B26242114491F93B101A
:1004C00040FA81F0DFF8081B086024B2392C0ED105
:1004D000DFF8FC0A00680321B0FBF1F0DFF8F01A46
:1004E0000860DFF8EC0A0068DFF8001B0870A2E182
:1004F000200000B200F084FBDFF8DC0A24B2614285
:10050000084490F93B004C281FDBD4F13B00DFF896
:10051000C41A087024B2002C10D4DFF8DC0A00786A
:10052000401CDFF8D41A08705020DFF8AC1A24B24F
:100530006242114481F83B00641EEBE7DFF8B80A21
:100540000078DFF8CC1A087077E1DFF88C0A24B263
:100550006142084490F93B0004281FDAD4F13B00C3
:10056000DFF8701A087024B2002C10D4DFF8880A63
:100570000078401EDFF8801A08700020DFF8581A53
:1005800024B26242114481F83B00641EEBE7DFF8BD
:10059000680A0078DFF8781A08704EE1DFF8400A40
:1005A00024B26142084490F93B10DFF8300A24B2CB
:1005B0006242104490F93B0000F0AAFC0A2851DA8C
:1005C000DFF81C0A24B26142084490F93B00292854
:1005D0001FDBD4F13B00DFF8FC19087024B2002CBB
:1005E00010D4DFF8140A0078401CDFF80C1A0870E9
:1005F0005020DFF8E41924B26242114481F83B0034
:10060000641EEBE7DFF8F0090078DFF8041A0870E1
:1006100013E1DFF8C80924B26142084490F93B00B5
:1006200028281FDAD4F13B00DFF8A819087024B29B
:10063000002C10D4DFF8C0090078401EDFF8B8198C
:1006400008700020DFF8901924B26242114481F84A
:100650003B00641EEBE7DFF8A0090078DFF8B01973
:100660000870EAE0DFF8AC0990F90000062806DA25
:10067000DFF8A40990F900000628C0F2D280DFF864
:10068000580924B26142084490F93B10DFF8480948
:1006900024B26242104490F93A00091A002919D490
:1006A000DFF86C0990F90000002813D5DFF8400945
:1006B00090F9000000280DD1DFF81C0924B2614236
:1006C000084490F83A00DFF8101924B2624211444D
:1006D00081F83B00DFF8000924B26142084490F938
:1006E0003B10DFF8F40824B26242104490F93A005B
:1006F000091A00292CD4DFF8180990F90000012804
:1007000026DBDFF8EC0890F90000002820D1DFF8A4
:10071000C80824B26142084490F93A10DFF8B808DA
:1007200024B26242104490F93B0000F0F1FB04282F
:100730000EDBDFF8A40824B26142084490F83A00C6
:10074000401CDFF8941824B26242114481F83B0047
:10075000DFF8840824B26142084490F93B10DFF8C6
:10076000780824B26242104490F93A00091A01292B
:1007700019DADFF89C0890F90000012813DBDFF894
:10078000700890F9000000280DD1DFF84C0824B261
:100790006142084490F83A00DFF83C1824B2624203
:1007A000114481F83B00DFF8300824B2614208446C
:1007B00090F93B10DFF8200824B26242104490F90F
:1007C0003A00091A01292CDADFF8440890F90000F0
:1007D000002826D5DFF8180890F90000002820D15D
:1007E000DFF8F40724B26142084490F93A10DFF8C8
:1007F000E80724B26242104490F93B0000F088FB05
:1008000004280EDBDFF8D00724B26142084490F8D8
:100810003A00401EDFF8C01724B26242114481F84A
:100820003B00DFF8B40724B26142084490F83B0073
:10083000DFF8B8170870641E2DE6DFF8B8070078F7
:10084000DFF8CC1A0870DFF8B80790F90000062826
:1008500014DBDFF8B00790F9000006280EDBDFF8A4
:10086000A00790F90000DFF89C1791F90010081814
:10087000022190FBF1F0DFF8A0170870DFF87C0789
:100880000078DFF890170870DFF86C070078DFF861
:100890008017087000F01EFB10BD10B40100DFF8D7
:1008A0004C0790F90000401E020012B2042A38DB07
:1008B000DFF8640A502311FB03F3184412B2805C82
:1008C000012819D1DFF8500A502311FB03F3184413
:1008D00012B2104410F8010C00280DD10120DFF8ED
:1008E000043718701000401EDFF8F03609B24C4291
:1008F000234483F83B0014E0DFF804070078401C31
:10090000DFF8FC3618700020DFF8D83618700020A9
:10091000DFF8C83609B24C42234483F83B00521E2C
:10092000C3E7DFF8C80690F90000020012B24C2AB3
:1009300036DADFF8E409502311FB03F3184412B24E
:10094000805C012817D1DFF8D009502311FB03F395
:10095000184412B21044407800280CD10120DFF86E
:1009600088361870501CDFF8783609B24C422344A0
:1009700083F83B0014E0DFF88C060078401CDFF8B9
:10098000843618700020DFF8603618705020DFF8C9
:10099000503609B24C42234483F83B00521CC5E751
:1009A00010BC704710B50400200000B2FFF775FFBF
:1009B000DFF8300690F9000000282AD0DFF828067A
:1009C00090F90000002824D00120DFF824160870D8
:1009D000DFF820060078401CDFF818160870DFF8F2
:1009E000FC0524B26142084490F93B00DFF8F015A1
:1009F00024B26242114491F93B1041FA80F0022185
:100A000090FBF1F0DFF8D01524B26242114481F876
:100A10003B00DFF8D00590F9000000282FD1DFF867
:100A2000C80590F90000002829D10020DFF8C01582
:100A3000087024B2D4F13B002D2806DADFF8BC059B
:100A40000078401CDFF8B4150870DFF8900524B278
:100A50006142084490F93B00DFF8841524B26242F9
:100A6000114491F93B1041FA80F0022190FBF1F022
:100A7000DFF8641524B26242114481F83B00DFF8CC
:100A8000640590F9000000281FD1DFF85C0590F99B
:100A90000000002819D00020DFF854150870DFF896
:100AA000400524B26142084490F83B10DFF86C081E
:100AB00024B26242104490F83B00091ADFF818058E
:100AC00024B26242104480F83B10DFF8180590F918
:100AD000000000281FD0DFF8100590F90000002862
:100AE00019D10020DFF808150870DFF8F00424B2EF
:100AF0006142084490F83B10DFF8200824B26242BB
:100B0000104490F83B004118DFF8CC0424B2624254
:100B1000104480F83B10DFF8D40490F90000DFF8AF
:100B2000B81424B26242114491F93B10884227DA8A
:100B3000DFF8B80490F90010DFF89C0424B2624298
:100B4000104490F93B0000F0E3F9032818DA24B2CE
:100B5000D4F13B002D2813DADFF89C040078401C08
:100B6000DFF894140870DFF8880490F90000012879
:100B700006D1DFF8840400780A30DFF87C140870AE
:100B8000DFF8540424B26142084490F93B00DFF8D6
:100B90005C1491F90010884227DADFF8500490F9CC
:100BA0000010DFF8340424B26242104490F93B0094
:100BB00000F0AEF9032818DA24B2D4F13B002D2856
:100BC00013DADFF834040078401EDFF82C140870C4
:100BD000DFF81C0490F90000012806D1DFF81804A2
:100BE00000780A38DFF810140870DFF8EC0324B23C
:100BF0006142084490F83B00DFF8F013087010BD24
:100C000010B50400200000B2FFF747FEDFF8D40360
:100C100090F9000000282AD0DFF8CC0390F90000FA
:100C2000002824D00120DFF8C8130870DFF8C403BF
:100C30000078401CDFF8BC130870DFF8A00324B272
:100C40006142084490F93B00DFF8941324B26242F9
:100C5000114491F93B1041FA80F0022190FBF1F030
:100C6000DFF8741324B26242114481F83B00DFF8CC
:100C7000740390F9000000281ED1DFF86C0390F98E
:100C80000000002818D10020DFF86413087024B297
:100C9000D4F13B002D2806DADFF860030078401C11
:100CA000DFF858130870DFF878060078CA4924B2D4
:100CB0006242114481F83B00CA4890F900000028C4
:100CC0004BD1C94890F90000002846D00020C849FF
:100CD000087024B2D4F13B001E2827DADFF8400662
:100CE0000178BF4824B26242104490F83B0041189A
:100CF000BB4824B26242104490F83A00091ADFF867
:100D00001C0624B26242104490F83A004118DFF801
:100D10000C0624B26242104490F83B00091AAE4817
:100D200024B26242104480F83B1016E0DFF8F00570
:100D30000178AB4824B26242104490F83B0041185D
:100D4000A74824B26242104490F83A00091AA24817
:100D500024B26242104480F83B10A24890F900008F
:100D600000284CD0A04890F90000002847D100206E
:100D70009F49087024B2D4F13B001E2827DADFF81F
:100D8000A0050178954824B26242104490F83B00D7
:100D90004118924824B26242104490F83A00091A6D
:100DA000DFF8780524B26242104490F83A00091A3C
:100DB000DFF8680524B26242104490F83B00411805
:100DC000854824B26242104480F83B1017E0DFF8F7
:100DD00050050178814824B26242104490F83B00EB
:100DE00041187E4824B26242104490F83A00091A31
:100DF000DFF8300524B26242104480F83B10DFF87F
:100E0000200590F90000DFF81C1524B2624211445D
:100E100091F93B10884222DADFF8040590F90010BE
:100E2000DFF8000524B26242104490F93B0000F064
:100E30006FF8032813DA24B2D4F13B002D280EDA20
:100E40006D480078401C6C490870694890F90000B2
:100E5000012804D1684800780A3067490870DFF833
:100E6000C40424B26142084490F93B00DFF8B01496
:100E700091F90010884222DADFF8A40490F90010FA
:100E8000DFF8A00424B26242104490F93B0000F065
:100E90003FF8032813DA24B2D4F13B002D280EDAF0
:100EA00055480078401E54490870514890F9000098
:100EB000012804D1504800780A384F490870DFF8FB
:100EC000640424B26142084490F83B00DFF85014F7
:100ED000087010BD0020DFF85024106000200100D1
:100EE0003C2914DADFF840040268DFF8380443567E
:100EF000283BDFF8380450F821004343022093FBDD
:100F0000F0F08218DFF820040260491CE8E770471F
:100F100010B4020013000C005BB264B2A34202DB07
:100F2000531A180001E08B1A180040B210BC704729
:100F300010B59FED360A0020040024B23C2C17DACD
:100F400010EE100A00F022FADFF8E423DFF8E433B1
:100F500000F040FA00F0FAFA00EE100AFDEEC00AC6
:100F600010EE900ADFF8B41324B20855641CE4E7CD
:100F700010BD0021DFF8C033196000210A0012B251
:100F80003C2A24DA411E12B2914209DBD0F13C0125
:100F900001FA82F1DFF8943312B243F8221008E02C
:100FA00012B2D2F13C014118DFF8803312B243F89B
:100FB0002210DFF884130B68DFF8701312B251F8B7
:100FC0002210CB18DFF870130B60521CD7E7704764
:100FD000880B00148126001464000014C00C001457
:100FE000280000147F260014802600144C090014E9
:100FF00082260014832600148B26001485260014F4
:1010000087260014882600148926001400000C424C
:101010008C260014862600148A26001410B582B08F
:10102000C64890F90000002840F09F80C44890F91D
:101030000000002840F09980C24890F90000002884
:1010400040F093800123C04A0021502000F0FCFCB6
:1010500001231C00BD48D0E900230020BC4900F05A
:1010600043FE00F073FA00EE100A23009FA2012154
:10107000502000F08BFD01231C00B648D0E9000190
:1010800000F064FA00EE100A230098A2022150201A
:1010900000F07CFD01231C00AF48D0E9000100F006
:1010A00055FA00EE100A230090A20321502000F010
:1010B0006DFD01231C00A948D0E9060100F046FAA5
:1010C00000EE100A23008AA20421502000F05EFDE9
:1010D00001200090A248036886A20521502000F05C
:1010E00011FC012000909048036883A20621502043
:1010F00000F008FC012000909A4803689A4A0721F2
:10110000502000F0FFFB99480078002805D101230A
:101110007AA20121562000F097FC9448007801281B
:1011200005D1012375A20221562000F08DFC8F48C5
:101130000078022805D1012370A20321562000F077
:1011400083FC8A480078032805D101236BA204217F
:10115000562000F079FC85480078042805D1012349
:1011600066A20521562000F06FFC744890F900003B
:10117000012843D1724890F9000000283ED17148FF
:1011800090F90000002839D101200090784890F9AA
:1011900000305BA20021502000F0B4FB0120009041
:1011A000744890F9003057A20121502000F0AAFBAA
:1011B00001200090564890F9003053A2022150209F
:1011C00000F0A0FB012000906B4890F900306B4AC2
:1011D0000321502000F096FB012000905248036844
:1011E00045A20621502000F08DFB012000905D48B3
:1011F00003685D4A0721502000F084FB4F4890F9B6
:101200000000002870D14E4890F9000001286BD1F1
:101210004C4890F90000002866D101200090584801
:1012200003683AA20021502000F06CFB01231C004F
:101230005448D0E9020100F089F900EE100A2300B9
:101240002AA20121502000F0A1FC01231C004D48DE
:10125000D0E9040100F07AF900EE100A23002DA273
:101260000221502000F092FC01231C004548D0E9E7
:10127000060100F06BF900EE100A23001CA2032106
:10128000502000F083FC012000903E48036819A222
:101290000421502000F036FB3B480078002805D19F
:1012A000012316A20121562000F0CEFB364800781B
:1012B000012805D1012311A20221562000F0C4FB10
:1012C00031480078022805D101230CA203215620C1
:1012D00000F0BAFB2C480078032805D1012307A2AF
:1012E0000421562000F0B0FB13BD00005020000088
:1012F0004420000056200000453A00003A0000005B
:1013000043463A0044493A0041563A00563A0000F2
:101310008426001449200000540F0014900B001480
:101320004C090014640000148C0B0014CC0B001446
:101330001F85EB51B81ED5BFBC0C00147B260014D2
:101340007C2600147D260014A06E000010000014FE
:1013500000408F400800001400000014300B0014FF
:101360002000001418000014D86E00007826001425
:10137000862600148C2600148A260014E06E0000D5
:10138000840B0014580B001479260014C0F3C751C5
:1013900081B1FF2906D0C110400721F0E04101F1E1
:1013A0006051704741020CBF40F4E0016FF0004112
:1013B0000020704700F0004100020AD0B0FA80FC23
:1013C00000FA0CF001F16051A1EB0C5101EBD021BE
:1013D0004005704770B44FF0004591EA030F40F1AB
:1013E00059856B40841A71EB030604D26E40001BD2
:1013F000B141121973414FF4001C1CEB410F34BF73
:101400007CEB430682E00C0DA4EB1356362E7BDCFE
:10141000012E45EAC32341DC43EA525312BFD202F4
:1014200092025B08240545EAC12141EA5051D2EB02
:10143000C020994125D407D1B0FA80F610FA06F100
:1014400062D00020203608E0B1FA81F6B140C6F142
:10145000200220FA02F21143B0404FEAF474B4EBD8
:10146000465434F001064FEA74040AD8D6F5001643
:10147000760D04F00044F04061FA06F25040F1406D
:101480004840C00A40EA415021F0004128BF5FEACD
:10149000500550F1000044EBD12135E0DB0A45EA6C
:1014A000C121C90AB6F120050EDD42EA0242120C42
:1014B000C5F1200603FA06F6EB4042EA06056D4246
:1014C000984161F100010DE062FA06F5F2405540E5
:1014D00063FA06FC82EA0C02F3405A406D429041E6
:1014E00061EB030111F4801F05D1641E620502D077
:1014F0006D004041494121F48011430875F10043DA
:1015000050F1000041EB045170BC70471CEB410FDF
:1015100015D223F0004352EA43060BD04FEA4C0C9D
:10152000BCEB410F04D80C0D661E342EB7DDEBE783
:10153000801A994150EA410608BF0021E4E708BF3C
:101540001CEB430F28BF6FF00001DDE701F0004204
:101550008B1AA3F16051B1F5801F0ADBB1F17F6FE7
:101560001FD242EAC102C10071F1004142EB50704A
:1015700070470B15C3F10903212B10D2890241EAF0
:10158000905180020128494141F0004121FA03F0C5
:10159000C3F12003994071F10041504170471000A0
:1015A00070476FF0000013EB103F5CBF000E42EA83
:1015B000C050704738B50400082501214E2000F0C6
:1015C0002AFD00BF00BF00BF00BF00BF00BF00BFBB
:1015D00000BF00214B2000F01EFD00BF00BF00BF78
:1015E00000BF00BF00BF00BF00BF2800451EC0B243
:1015F000002824D0200604D501214C2000F00BFD4A
:1016000003E000214C2000F006FD01214B2000F0FA
:1016100002FD00BF00BF00BF00BF00BF00BF00BF92
:1016200000BF00214B2000F0F6FC00BF00BF00BF50
:1016300000BF00BF00BF00BF00BF6400D5E731BDE1
:1016400038B50400082500214E2000F0E4FC00BF5E
:1016500000BF00BF00BF00BF00BF00BF00BF002130
:101660004B2000F0D8FC00BF00BF00BF00BF00BF90
:1016700000BF00BF00BF2800451EC0B2002824D014
:10168000200604D501214C2000F0C5FC03E0002118
:101690004C2000F0C0FC01214B2000F0BCFC00BF3E
:1016A00000BF00BF00BF00BF00BF00BF00BF0021E0
:1016B0004B2000F0B0FC00BF00BF00BF00BF00BF68
:1016C00000BF00BF00BF6400D5E731BD38B50400DE
:1016D0000D00B5F15000C0B2FFF7B2FF2000C0B25C
:1016E000000950F01000C0B2FFF7AAFF14F00F007D
:1016F00050F00100C0B2FFF7A3FF31BD70B5040088
:1017000000200500EDB2082D17DAB5F15000C0B287
:10171000FFF796FF0120FFF793FF1020FFF790FFE0
:1017200000200600F6B2802E05DA2000C0B2FFF7D6
:1017300041FF761CF6E76D1CE4E770BD80B5012221
:1017400001214B2000F010FC012201214E2000F06D
:101750000BFC012201214C2000F006FC002201219B
:101760004D2000F001FC642000F0FCFC00214D2025
:1017700000F051FC642000F0F5FC01214D2000F048
:101780004AFCAE20FFF75CFF0020FFF759FF102056
:10179000FFF756FF4020FFF753FF8120FFF750FF70
:1017A000CF20FFF74DFFA120FFF74AFFC820FFF72A
:1017B00047FFA620FFF744FFA820FFF741FF3F2087
:1017C000FFF73EFFD320FFF73BFF0020FFF738FF76
:1017D000D520FFF735FF8020FFF732FFD920FFF734
:1017E0002FFFF120FFF72CFFDA20FFF729FF12204F
:1017F000FFF726FFDB20FFF723FF4020FFF720FF46
:101800002020FFF71DFF0220FFF71AFF8D20FFF7B2
:1018100017FF1420FFF714FFA420FFF711FFA620E5
:10182000FFF70EFFAF20FFF70BFF0020FFF766FF6B
:1018300000210020FFF74AFF01BDF0B40026C0B22E
:10184000802802DAC9B2402900DB34E0C9B208239B
:1018500091FBF3F3D3F107031C00C9B2082391FBFA
:10186000F3F703FB17131D000127D5F107039F4072
:101870003E00D2B2002A0FD0DFF85C34C0B203EBD6
:10188000C003E4B2DFF85074C0B207EBC007E4B2A3
:101890003F5D37431F550EE0DFF83C34C0B203EB29
:1018A000C003E4B2DFF83074C0B207EBC007E4B2A3
:1018B0003F5DB7431F55F0BC704738B500200400AA
:1018C000E4B2082C1CDAB4F15000C0B2FFF7B8FE45
:1018D0000020FFF7B5FE1020FFF7B2FE0020050044
:1018E000EDB2802D0ADADFF8F003EDB200EBC500AF
:1018F000E4B2005DFFF75EFE6D1CF1E7641CDFE7FC
:1019000031BD00002DE9F04F85B082460D00160074
:101910001F000E9C5FF000085FF000095FF0000BF5
:101920003B003200DFF8B413684600F027FCE4B255
:101930002000012802D0022836D082E068465FFAF3
:101940008BFB10F80B0000282DD068465FFA8BFB4C
:1019500010F80B00203880465FFA8AFABAF17F0F40
:1019600021DA2900C9B25046C0B2FFF7AFFE00200D
:1019700081465FFA89F9B9F1060F0FDA82485FFAFA
:1019800088F8062101FB08F108445FFA89F910F88C
:101990000900FFF70FFE19F10109EAE71AF1060A3B
:1019A0001BF1010BCAE74CE068465FFA8BFB10F8AD
:1019B0000B00002845D068465FFA8BFB10F80B003F
:1019C000203880465FFA8AFABAF1790F39DA2900AD
:1019D000C9B25046C0B2FFF779FE002081465FFAD7
:1019E00089F9B9F1080F0CDAB9485FFA88F85FFA9B
:1019F00089F919EB0811405CFFF7DCFD19F10109C9
:101A0000EDE7691CC9B25046C0B2FFF75FFE002087
:101A100081465FFA89F9B9F1080F0DDAAC485FFA2F
:101A200088F85FFA89F919EB08110844007AFFF782
:101A3000C1FD19F10109ECE71AF1080A1BF1010BCC
:101A4000B2E705B0BDE8F08F2DE9F04786B004009D
:101A50000D0016001F005FF000085FF000095FF046
:101A6000000A32009BA1684600F088FBFFB23800F4
:101A7000012802D0022836D082E068465FFA8AFA4E
:101A800010F80A0000282DD068465FFA8AFA10F88C
:101A90000A0020388046E4B27F2C02DB00200400DC
:101AA0006D1C2900C9B22000C0B2FFF70FFE002054
:101AB00081465FFA89F9B9F1060F0FDA32485FFA09
:101AC00088F8062101FB08F108445FFA89F910F84B
:101AD0000900FFF76FFD19F10109EAE7A41D1AF1EA
:101AE000010ACAE74CE068465FFA8AFA10F80A0071
:101AF000002845D068465FFA8AFA10F80A002038B4
:101B00008046E4B2792C02DB002004006D1C290021
:101B1000C9B22000C0B2FFF7D9FD002081465FFAAC
:101B200089F9B9F1080F0CDA69485FFA88F85FFAA9
:101B300089F919EB0811405CFFF73CFD19F1010927
:101B4000EDE7691CC9B22000C0B2FFF7BFFD00205D
:101B500081465FFA89F9B9F1080F0DDA5C485FFA3E
:101B600088F85FFA89F919EB08110844007AFFF741
:101B700021FD19F10109ECE708341AF1010AB2E775
:101B800006B0BDE8F0870000A06200002DE9F04734
:101B90002DED028B88B004000D009246B0EE408A15
:101BA0001E0000275FF000085FF0000918EE100A21
:101BB000FFF7ECFBCDE900015246494902A800F0CD
:101BC000DDFAF6B23000012802D0022832D079E0E6
:101BD00002A85FFA89F910F80900002829D002A8A4
:101BE0005FFA89F910F8090020380700E4B27F2C69
:101BF0001FDA2900C9B22000C0B2FFF767FD00203C
:101C000080465FFA88F8B8F1060F0EDA3548FFB261
:101C1000062101FB07F108445FFA88F810F8080074
:101C2000FFF7C8FC18F10108EBE7A41D19F1010941
:101C3000CEE747E002A85FFA89F910F8090000280A
:101C400040D002A85FFA89F910F80900203807008F
:101C5000E4B2792C36DA2900C9B22000C0B2FFF70D
:101C600035FD002080465FFA88F8B8F1080F0BDADE
:101C70001748FFB25FFA88F818EB0711405CFFF7CE
:101C800099FC18F10108EEE7691CC9B22000C0B246
:101C9000FFF71CFD002080465FFA88F8B8F1080FB6
:101CA0000CDA0B48FFB25FFA88F818EB071108440A
:101CB000007AFFF77FFC18F10108EDE7083419F10D
:101CC0000109B7E708B0BDEC028BBDE8F087000062
:101CD000D85000002573000014220014AC6E0000E0
:101CE000B86E0000A0620000B0B581EA030C0CF0F1
:101CF000004C40F2FF7515EA11541DBF15EA135749
:101D0000AC42AF4231E0E41923EA455343F4801377
:101D1000C90241F0004141EA505EC702A7FB021030
:101D20000029A2FB0E21E3FB6720E3FB6E0118BF35
:101D300042F00102A4F580640F0302D25200404138
:101D4000494154F101046CDD470872F1004250F141
:101D5000000051EB0451A1F580115CBF41EA0C0178
:101D6000B0BD4CEA05510020B0BD05EA1357AC42A6
:101D700014BFAF4241E050EA410E1CBF52EA430E8D
:101D800002E061460020B0BD24423C441BD15FEA22
:101D9000070EF6D0090302BF01460020AEF1140E73
:101DA000B1FA81F7AEEB070401FA07FE0C37C7F171
:101DB000200100FA07F7C8404EEA000E23EA455317
:101DC00043F48013AAE733F00043B3FA83F704BF68
:101DD000B2FA82FE77440B3FE41BB7F1200E2FBF0F
:101DE00002FA0EF3BB40C7F1200E22FA0EFE38BFF6
:101DF00043EA0E03BA40641C8AE750EA410E14BF5E
:101E000052EA430E6FF000014FF4001717EB430F37
:101E10008ABF194617EB410FB5E74CEA0551002080
:101E2000B0BDD4F10104B4F120070FDAC4F12007EA
:101E3000520828BF42F0010210FA07F501FA07F72D
:101E4000E1BF2A43E0403843E1400FE0352C98DC05
:101E5000C7F1200452EA400220FA07F218BF42F00C
:101E6000010231FA07F0A1400A43002172F1004259
:101E700050F1000051EB0C01B0BD0268531C03602F
:101E80001170704770B44FF0004591EA030F7FF571
:101E9000A9AA6B40841A71EB030603D2001BB1415F
:101EA000121973414FF4001C1CEB410F34BF7CEB43
:101EB000430442E00C0DA4EB1356352E4FDC45EAEB
:101EC000C323DB0A45EAC121C912B6F120050DDDA5
:101ED00063FA05F6EB4086EA0305124218BF45F0A7
:101EE0000105C01851F100010CD213E062FA06F5A9
:101EF000F2405540F3415A40B340F3405A408018F5
:101F0000594107D349085FEA30005FEA350528BF29
:101F100045F0010501F58011420875F1004250F1CC
:101F2000000041EB04514E0016F5001F70BC38BF95
:101F300070470020090D090570471CEB410F10D2B6
:101F400052EA43060BD0BCEB410F05D80C0DAB4356
:101F5000661E342EB6DD02E0AB438018594170BCDA
:101F6000704770BC7047010070B504000D0016008A
:101F70004FF480712000C0B200F020F96DB2002D46
:101F800011D15E48E4B2611150F821005B49E4B21E
:101F9000621151F822104969012214F01F039A407E
:101FA0009143416136E05548E4B2611150F8210097
:101FB0005249E4B2621151F822104969012214F029
:101FC0001F039A4011434161F6B2002E11D14B48D4
:101FD000E4B2611150F821000068012114F01F02E1
:101FE000914088434549E4B2621151F822100860DB
:101FF00010E04248E4B2611150F82100006801216C
:1020000014F01F02914008433C49E4B2621151F8B8
:102010002210086070BD38B504000D003748E4B2E6
:10202000611150F82100406914F01F01C840C00739
:1020300003D46321324800F02EF9EDB2002D11D106
:102040002E48E4B2611150F821000068012114F01B
:102050001F02914088432949E4B2621151F82210CD
:10206000086010E02548E4B2611150F821000068D2
:10207000012114F01F02914008432049E4B262118B
:1020800051F82210086031BD10B504001B48E4B2BD
:10209000611150F82100406914F01F01C840C007C9
:1020A00003D47B21164800F0F6F81448E4B261111D
:1020B00050F82100012114F01F029140C16010BDB1
:1020C00010B504000D48E4B2611150F821004069D8
:1020D00014F01F01C840C00703D58C21084800F048
:1020E000DAF80648E4B2611150F82100006914F0F2
:1020F0001F01C84010F0010010BD0000B40700141B
:10210000746B000030B4134C246854F08074114D8B
:102110002C60114C246854F001040F4D2C600F4CBE
:10212000246821000E4C24684FF47A7594FBF5F472
:1021300004FB00F423005C1822008A4203D2074CFF
:102140002468A242FBD3054C24689442FBD330BCE4
:1021500070470000FCED00E0001000E0041000E01B
:102160001426001410B504002000441E002804D0DA
:102170004FF47A70FFF7C6FFF6E710BD0CB430B528
:1021800083B0044606A802900A46002501940095F3
:1021900002AB01A9084878441E3000F00FF90199FC
:1021A0000D7000284EBF04460198041B204603B062
:1021B00030BC5DF80CFB00BFC3FCFFFF10B4294A24
:1021C00012684FF40073C0B24409A3401A43254B70
:1021D0001A60254AC0B2431152F82320012310F09F
:1021E0001F04A340C2F8A0301F4AC0B2431152F8E6
:1021F0002320C0B210F01F0342F8231010BC704718
:1022000010B4184A12684FF40073C0B24409A340D6
:102210001A43144B1A60144AC0B2431152F82320D7
:10222000012310F01F04A340C2F8A03031F4E06194
:102230000D4AC0B2431152F82320C0B210F01F0360
:1022400052F8232012F4E0621143074AC0B243114E
:1022500052F82320C0B210F01F0342F8231010BC24
:10226000704700003880044024080014DFF800F0B4
:1022700079090014DFF800F095090014BFF34F8FBF
:102280004648006810F4E060454908434349086047
:10229000BFF34F8FFEE738B504000D00002000F0BB
:1022A00095FE2A0021003F4800F0B8FE002000F013
:1022B000AAFE4FF47A70FFF755FFF2E738B5040035
:1022C0000D00210049B2032000F0C6FF200032BDFE
:1022D00010B50024042000F0EBFF042001F01EF8EC
:1022E000002841D1002000F071FE042001F016F812
:1022F000012801D101200400002000F084FE2A48BA
:1023000000F08CFE4FF4FA70FFF72CFFE4B2012CC2
:10231000EBD1042001F002F80028E6D1042000F0FF
:10232000FDFF002806D1002000F06DFE6420FFF7BD
:1023300019FFF3E7042000F0F1FF012806D1002087
:1023400000F061FE3220FFF70DFFF3E7174800F0C1
:1023500065FEFFF78BFF6420FFF704FF0020FFF707
:1023600089FFFFF78BFFC0E710BD10B51048046868
:10237000012000F02BFE012000F045FE0D48E4B2E4
:102380000F2101FB0402E4B221000B4800F046FEDD
:102390004FF47A70FFF7E6FEEDE700000CED00E089
:1023A0000400FA05146D0000786E0000B46D0000A2
:1023B00004ED00E0A0000014B06C00002DE9F04333
:1023C0009FB081462698DFF804898DF83B001746B8
:1023D00000201E4602910B900FF688344FF0FF3517
:1023E0000AE017F8011B0298C8470028029000F085
:1023F0009A800B98401C0B90387850B12528F0D16A
:1024000000200021059006910790089109900A91FB
:1024100003E00B989AE041F0010117F8010F202822
:10242000F9D023280DD02B2804D02D2806D0302811
:102430000AD07AE041F0020189B2EEE741F00401EE
:10244000FAE741F00801F7E741F01001F4E7002056
:102450000D9009E00D98404505DA00EB800302EB92
:102460004302303A0D927F1C3A78A2F130000A28DC
:10247000F0D33A782E2A18BF0C9523D117F8010F04
:102480002A2807D1306830607F1C50F8042B306058
:102490000C9217E02D280CBF17F8010B002000222A
:1024A0000C920AE040B90C9A424505DA02EB82022E
:1024B00003EB4203303B0C937F1C3B78A3F13002CB
:1024C0000A2AEFD3ADF838102046397800F09CFF87
:1024D00008B117F8010B8DF83A009DF83A0068280A
:1024E00004BF3978682903D162208DF83A0007E0EB
:1024F0006C2804BF38786C2803D171218DF83A100C
:102500007F1C10A80490324617F8013B69464846E4
:1025100000F05CF838B910AA6946484600F084F922
:1025200000287FF569AF284610E02A288FD130684F
:10253000306050F8042B3060002A0D9204D55242CE
:1025400041F004010D9289B27F1C92E71FB0BDE8F3
:10255000F083622820D0682811D06A2803D06C2824
:1025600027D0712825D10868C01D20F00700086019
:10257000D0E9002308300860194610467047002A49
:102580000A680A60106803D0121D0A6000B217E0E2
:10259000121D0A6080B217E0002A0A680A601068FB
:1025A00003D0121D0A6040B20AE0121D0A60C0B2D8
:1025B0000AE0002A0A680A60106803D0121D0A6047
:1025C000C1177047121D0A600021704770B51C4684
:1025D0000D46B4F125002E69114600F01381203814
:1025E000022865D9133841D00B3816D0401E1ED0B2
:1025F000401E02285CD9001F19D0401F00F08380C4
:10260000401E33D0401E00F0CD80C01E00F0D880A8
:10261000801E2BD0C01E29D0FAE06869421C6A6176
:102620000A680A6052F8043B0A603354FAE095F8ED
:102630003A000122FFF78DFFC5E90001002399420E
:1026400004DA6869411C69612D210DE0288F81073A
:1026500004D56869411C69612B2105E0C00722D5BA
:102660006869411C6961202131541CE095F83A00E9
:102670000022FFF76EFFC5E9000195F83800010759
:1026800011D5D5E900230020834208BF82420AD039
:1026900044F02000782806D1686930213154401C6C
:1026A000411C69613454214668693044E86083E024
:1026B0000868C01D20F007000860D0E9002308303A
:1026C0000860C5E90023D5E90001C80F04D0686996
:1026D000411C69612D210DE0288F810704D56869AF
:1026E000411C69612B2105E0C00704D56869411CC4
:1026F00069612021315468693044E86021462846E8
:1027000000F0C1F98EE005F13A02507820B14FF0A7
:10271000FF340FF658005EE01078622808D0682871
:1027200024D06A2812D06C282ED071280ED02BE02D
:102730000A680A6052F8040B0A6020B94FF0FF34AF
:102740000FF6400047E0E96A01706BE00A680A6032
:1027500052F8040B0A6020B94FF0FF340FF6240042
:1027600039E0EA6AD317C0E900235BE00A680A602F
:1027700052F8040B0A6020B94FF0FF340FF6040042
:1027800029E0E96A01804DE00A680A6052F8040B0A
:102790000A6020B94FF0FF340FF2E8701BE0E96ADD
:1027A00001603FE00A680A6052F8040B0A600021E9
:1027B000C5E90001EE607821284600F0BCF831E060
:1027C0000868086050F8044B0860EC603CB94FF0B2
:1027D000FF340FF2C87000F023FE201A70BD2E6B7C
:1027E000002E04D5204600F03DFE044608E03246A7
:1027F0000021204600F052FE002814BF041B34467E
:10280000AC610FE06869411C69612521315409E020
:102810006869411C696125223254200002D0481C9D
:1028200068617454002070BD2DE9F0410F4682B0FC
:102830000646796B7869BC6A091A386A091AB86958
:10284000091A786A091AF869091A97F838000C1BEE
:10285000410790460FD42021002C8DF800100ADD8E
:10286000254601236A463946304600F064FB0028BD
:102870005DD16D1EF5D17B6942463946304600F088
:102880005AFB002853D130208DF800003D6A002DFE
:1028900009DD01236A463946304600F04CFB00282A
:1028A00045D16D1EF5D1BB69FA683946304600F056
:1028B00042FB00283BD130208DF800007D6A002DBE
:1028C00008DD01236A463946304600F034FB70BB10
:1028D0006D1EF6D1F868B969FB6942183946304671
:1028E00000F029FB18BB30208DF80000BD6A002DD8
:1028F00008DD01236A463946304600F01CFBB0B9BA
:102900006D1EF6D197F8380041070DD52021002C17
:102910008DF8001008DD01236A463946304600F084
:102920000AFB20B9641EF6D10020BDE8F6814FF005
:10293000FF30BDE8F6812DE9F04704468A46256957
:10294000BAF16F0F08BF082705D04AF02000782899
:1029500014BF0A2710273C26D4E90001BAF1640FFE
:1029600018BFBAF1690F8046894607D10B4600218E
:102970008B4203DAD8F1000869EB49090020814550
:1029800008BF80451FD1206BE8B9082F47D194F8C4
:102990003800010743D530203B2685F83B003EE058
:1029A00000280ED594F8380000F01400102808D143
:1029B000626B6069121A206A121A561A002EC8BF7A
:1029C0002662BDE8F087404649463A46FB1700F0CC
:1029D00091FD3032761ED2B23A2AA4BFAAF151003C
:1029E0008218AA55404649463A46FB1700F082FD38
:1029F000804689460020814508BF804503D0E068B5
:102A0000A9198842DFD3082F09D194F838000107AB
:102A100005D5A95D302902D0761E3020A855A81909
:102A2000E060C6F13C01206BA1618142B8DA411A35
:102A300021624FF6EF70218F01402187BDE8F087BA
:102A40002DE9D04306460F4614464FF00008DFF844
:102A5000809212E0E00707D542464B4630463946A1
:102A6000FFF742F906460F464046494642464B4666
:102A7000FFF73AF9641080468946002CEAD13046C7
:102A80003946BDE8D0832DE9F04F04468FB0206B66
:102A9000D4E9009A0028884604AD48BF062005D432
:102AA00004BF48F02000672801D101202063D4E949
:102AB000002358004015401C0DD119030BD0A8F17C
:102AC000610103201A29A06102D20FF2EC4110E04B
:102AD0000FF2E8410DE058004015401C0ED11903DB
:102AE0000CD1A8F1610103201A29A06116D30FF2BD
:102AF000D441E068032200F075FDE3E0CDE9022354
:102B000023F00041B1F5801F11D20026B14208BF69
:102B1000B242019605D1DDE9020118E00FF2A041B1
:102B2000E7E7DDE9020101AA00F0B0FD08E0694E27
:102B300006EB1156684901960B4068491046194347
:102B4000019F674A47F29756774397FBF2F6C4E92D
:102B50000001024621F000430020834204BF82426C
:102B6000002300F0A780484651460022002300F0D1
:102B7000C5FD38BF8AF0004A3246D2F107020196FD
:102B800003DD5146FFF75CFF0AE052420020554941
:102B9000FFF756FF02460B464846514600F0C6FD79
:102BA000814648F0200BBBF1660F206B06BF019EEB
:102BB0000A3606263618142EC8BF142630208A4638
:102BC0008DF810000DF11107002E33DD48465146F7
:102BD00000F0D0FE01460A4607F1080304200A2748
:102BE000B2FBF7F707EB8705A2EB4502303203F89B
:102BF000012C0A22B7FBF2F202EB8205A7EB450794
:102C00003037401E03F8027DE9D1083E002E03F163
:102C10000807D9DD084600F0C1FE02460B464846CB
:102C20005146FFF72FF900222F4BFFF75DF8814641
:102C30008A46CBE70DF111003F1A0DF1110504E0B2
:102C40000198401E7F1E01906D1C28783028F7D017
:102C5000BBF1660F02D10198401C04E0BBF1650F87
:102C60000CBF01200020236BC3189F42B8BF7B1EFE
:102C7000002B1ED4BB4204DAE85C3528A8BF3920FB
:102C800000DA302019466A1E02EB010900E05B1EE3
:102C900019F801A9491E8245F9D0392802D1685C8A
:102CA000401C6854002904D50198401C15465B1C43
:102CB0000190019800B200901BB22A46414620467E
:102CC00000F014F80FB0BDE8F08F0000CBCCCC0CB6
:102CD0000000244002FCFFFFFFFF0F800000E03FE8
:102CE000A08601000000F03F84D797412DE9F0470E
:102CF00086B00546894692461F4600F05DFE002FCD
:102D0000406A2E6B90F8008002DC01270FF2B82A8F
:102D1000BDF9384049F02000662808BF641C13D074
:102D2000672840F0898014F1040F74DBB44272DA32
:102D300095F83800641C010702D4B742B8BF3E467C
:102D400024B2361B48BF002624B2E868A969002CCB
:102D500022DC4A1C30234354002E03DC95F8380053
:102D6000010703D5E86800F80280521CE642B8BFAC
:102D7000744224B2A6196042BE42B8BF3746AA6167
:102D800068623FB2EF61E868AB693A465146184461
:102D900000F028FCF61B18E022469742084416DA99
:102DA0003A46514600F01EFCA9697918E01B002E36
:102DB000A961686203DC95F83800020705D5E86868
:102DC00000F80180E869401CE861AE629CE0514671
:102DD00000F008FCA86920183F1B002E03DC95F8C2
:102DE00038100A0703D5E96801F80080401CA86183
:102DF0003FB2BE42B8BF3746E868AB693FB23A4619
:102E00000AEB0401184400F0EDFBA8693818A8612A
:102E1000F61B6E6278E0B74204DA95F838100A07BC
:102E200058BF3E46761E48BF0026B9F1670F0CBF5B
:102E30004FF065094FF04509A969EB68481CA86186
:102E4000002E1AF8012B5A5403DC95F838100A07A3
:102E500017D5E968431CAB6101F80080002E10DD36
:102E60007F1E3FB2BE42B8BF3746E8683FB23A461F
:102E70005146184400F0B6FBA8693818A861F61B43
:102E80006E62E868A9690844002C80F8009004D4B8
:102E90002B21417000F1020A04E02D21417000F164
:102EA000020A64424FF000086E4609E00A2203A8B5
:102EB00000F088FD049806F8010B08F10108039C56
:102EC00021B20029F2DCB8F1010F06DC49F0200044
:102ED000652804BF30200AF8010BB8F1000F0AD1B1
:102EE00030200AF8010B09E0A8F101081DF80800DC
:102EF00030300AF8010BB8F1000FF5DCE868A96979
:102F00000844AAEB0000E86195F8380000F01400CE
:102F100010280DD16969A8694118686A4118E869E3
:102F20004118A86A4118686B8142BCBF411A2962E6
:102F300006B0BDE8F087F8B505460E4617461C46B4
:102F4000002074B117F8011BB068A847B06030B119
:102F5000F06A401CF0620020641EF3D1F2BD4FF015
:102F6000FF30F2BD686A6C747A4C00007072696E52
:102F700074665F733A20256E20646973616C6C6FB0
:102F8000776564007072696E74663A2062616420CD
:102F9000256E20617267756D656E74007072696E62
:102FA00074665F733A2062616420257320617267E2
:102FB000756D656E740000006E616E004E414E00CE
:102FC000696E6600494E46003000000010B50400EE
:102FD00064B2042C07DA012201210F4864B2205C9C
:102FE000FEF7C2FF0EE0042004002000441E40B2A1
:102FF000002807D001220121074864B2205CFEF7B7
:10300000B3FFF2E710BD10B50400034864B2205CC2
:10301000FFF73AF810BD0000640800140EB4C0B504
:10302000024603A800210190009101AB0121044850
:1030300078440C30FFF7C2F906BC5DF810FB00BF06
:10304000153E00002DE9F84304000D0064B2002C89
:1030500008D0022C2CD018D3042C4FD03BD3052CF5
:103060005FD071E0DFF83002006850F48060DFF874
:10307000281208604FF440716620FFF79FF84FF464
:1030800040716720FFF79AF85EE0DFF80C020068F5
:1030900050F40060DFF8001208604FF440714320E4
:1030A000FFF78CF84FF440714420FFF787F84BE0AE
:1030B000DFF8E401006850F48050DFF8DC110860AC
:1030C0004FF440716320FFF779F84FF440716220AC
:1030D000FFF774F838E0DFF8C001006850F40050E2
:1030E000DFF8B41108604FF440715020FFF766F824
:1030F0004FF440715120FFF761F825E0DFF89C01A3
:10310000006850F48060DFF8941108604FF440715B
:103110004E20FFF753F84FF440714F20FFF74EF861
:1031200012E0DFF87801006850F40060DFF86C11FD
:1031300008604FF440718920FFF740F84FF4407168
:103140008820FFF73BF8FFE7DFF8540164B250F83E
:103150002400C07810F0F300DFF8441164B251F895
:103160002410C870DFF8380164B250F82400807869
:103170004B4964B251F82410887064B2002C02D01C
:1031800064B2012C06D1474800684FF47A71484375
:10319000814605E0444800684FF47A71484381460F
:1031A0002801B9FBF0F00600B6B2B6F5005F02DB0D
:1031B00041F6FF700600B9FBF5F0B6B2B0EB0610B1
:1031C0000700BFB2202F04DB40F203113748FFF79E
:1031D00062F8334864B250F82400007810F0E00040
:1031E0008046B6B2300A10F01F0050EA08002C49A1
:1031F00064B251F824100870294864B250F82400D1
:103200004670274864B250F82400807A10F0E0003D
:10321000804617F01F0050EA0800214964B251F8B7
:10322000241088721E4864B250F82400007C50F0CC
:1032300088001B4964B251F824100874184864B21D
:1032400050F82400C07850F00C00154964B251F8D1
:103250002410C870BDE8F183114A40B252F8202012
:1032600012791206F8D50E4A40B252F82020D171D8
:10327000704770B504000D0016003000461E00288F
:1032800008D095F9001049B2200040B2FFF7E4FFE2
:103290006D1CF2E770BD00003480044028800440BB
:1032A00038080014142600141C260014F46B0000C7
:1032B00010B5040064B2092C0DDA00220021504838
:1032C00064B2005DFEF750FE03214D4864B2005D1C
:1032D000FEF796FF14E0092004002000441E40B2CF
:1032E00000280DD000220021454864B2005DFEF7A1
:1032F0003BFE0321424864B2005DFEF781FFECE72C
:1033000010BD10B504003E4864B2005DFEF7D8FE63
:10331000002801D1002000E0012010BD10B50400FC
:10332000200040B2FFF7EDFF00280AD10A20FEF787
:1033300019FF200040B2FFF7E4FF002801D1002070
:1033400000E0012010BD10B5040064B2002C02D0D2
:1033500001202C4908702B4890F90000002835D036
:103360000020FFF7CEFF00280ED00120FFF7C9FF95
:10337000002809D00220FFF7C4FF002804D0032052
:10338000FFF7BFFF002821D10A20FEF7EBFE002047
:103390001C4908700020FFF7B4FF002801D100206D
:1033A0002CE00120FFF7ADFF002801D1012025E02E
:1033B0000220FFF7A6FF002801D102201EE0032013
:1033C000FFF79FFF002818D1032017E00020FFF728
:1033D00098FF012811D10120FFF793FF01280CD19C
:1033E0000220FFF78EFF012807D10320FFF789FF96
:1033F000012802D10120034908700A2010BD0000F5
:10340000580800144D0900140278C9B28A421AB152
:103410001CBF10F8012FF9E718BF0020704700000B
:1034200080B508B90FF21C0005490B681BB12222B8
:103430000021984701E000F0CCFA222002BD0000F4
:1034400024260014636F6E73747261696E74206851
:10345000616E646C65723A20626164206D6573739D
:103460006167650000F10103810704D010F8011BBA
:1034700089B18107FAD10268B2F10131914311F0AB
:10348000803F04BF50F8042FF6E710F8011B11B17C
:1034900010F8011BFBE7C01A70470000C9B2830790
:1034A00006D0521E22D310F8013B9942F7D11FE0FB
:1034B000083A13D302F1040241EA012141EA014131
:1034C00050F8043B121F21BF4B40A3F1013C2CEAF2
:1034D000030C1CF0803FF3D0C9B2001F083210F873
:1034E000013B521E28BF91EA030FF8D818BF0120F4
:1034F000401E70471B4213D1094236D12AB184467F
:10350000B0FBF2F002FB10C2704700F065BAFCD3CA
:103510000022002370470B000200002100207047AA
:10352000904271EB030CF6D370B5B1FA81F4B3FAA3
:1035300083F52C1BA340C4F1200532FA05F6334372
:10354000A2405FF00046E64002E05B085FEA32021C
:10355000841A71EB030524BF204629467641F4D333
:1035600002000B003000002170BD012ACFD970B5D8
:10357000140C20D0B1FA81F4B2FA82F5C4F120041F
:103580006419B4F12006D6D3B2405FF00044F44091
:10359000002502E052085FEA3303C61A71EB020EFF
:1035A00024BF3046714664416D41F3D302000B00E5
:1035B0002000290070BD0C46B1FBF2F102FB114561
:1035C0002D0445EA1045B5FBF2F402FB145580B218
:1035D00040EA0545B5FBF2F002FB105240EA044018
:1035E00070BD000062B38B0708D0521E11F8013B7A
:1035F00000F8013B00F024808B07F6D1830740F0F0
:10360000208000BF103A07D330B4B1E83810103A28
:10361000A0E83810F9D230BC530724BFB1E8081035
:10362000A0E8081044BF51F8043B40F8043BD2071F
:1036300024BF31F8022B20F8022B44BF0B78037013
:103640007047121F17D35B0009D151F8043B20F8D3
:10365000023B1B0C121F20F8023BF6D20BE051F884
:10366000043B00F8013B1B0A20F8023B1B0C121F15
:1036700000F8013BF3D238BF121D521E24BF11F8CF
:10368000013B00F8013BF8D87047000010B5144624
:1036900000F002F8226010BDC1F30A5343B14A00A2
:1036A00012F5001F28D2A3F2FE32A1EB025170479F
:1036B00050EA410C20D001F0004C31EA0C01B1FA83
:1036C00081F204BFB0FA80F3D2180B3AB2F12003B2
:1036D0002CBF00FA03F1914041EA0C013EBFC2F158
:1036E000200C20FA0CF319439040524240F2FD3373
:1036F000D21A01EB03517047002270474FF4001CAF
:103700001CEB410F94BF1CEB430F09E041EA030C93
:1037100050EA4C0C52EA0C0C03D2994208BF90427A
:10372000704714BF8B42824270470000F0B540F2F0
:10373000FF7581EA030C0CF0004C15EA11541DBF13
:1037400015EA1357AC42AF42E5E0BC41C1F31301A7
:10375000C3F31303801A994143F4801304D2641E07
:103760004000494180185941C90241EA5051B1FB1A
:10377000F3F603FB1611A2FB0675D7EBC020A94197
:1037800002D2761E80185941C90241EA5051B1FB5C
:10379000F3FE03FB1E11A2FB0E75D7EBC020A9415F
:1037A00003D2AEF1010E80185941890241EA9051CD
:1037B000760546EA8E2EB1FBF3F603FB1611A2FB4B
:1037C0000675D7EB8020A94102D2761E8018594198
:1037D000C90241EA50514EEA060EB1FBF3F603FB73
:1037E0001611A2FB0675D7EBC020A94102D2761EA6
:1037F00080185941C90241EA5051B1FBF3F703FB6C
:103800001711A2FB0735D3EBC020A94167F10007D0
:103810000CBF004247F0010766F3D5274FEA1E317F
:10382000B80814F5806412DDBD0775F1004250EB55
:103830000E5051EB045111F5801F5CBF41EA0C01A1
:10384000F0BD4CF07F6141F0E0410020F0BDBD07CC
:103850006D0840EA0E5041F48011D4F10104B4F136
:1038600020060ADAC4F120060200E04001FA06F35D
:10387000E1401843B24015430EE0342C13DCC6F18E
:10388000200445EA40056D0820FA06F2154321FAA6
:1038900006F0A1400D43002175F1004250F10000F7
:1038A00051EB0C01F0BD00205FEA0C01F0BDCFB977
:1038B00092185B41B3FA83F704BFB2FA82F6BF19DC
:1038C0000B3FB7F120062FBF02FA06F3BB40C7F14A
:1038D000200622FA06F638BF3343BA401CB1E41979
:1038E000641E33E77F4231F00041B1FA81F404BF36
:1038F000B0FA80F6A4190B3CB4F120062FBF00FAF1
:1039000006F1A140C4F1200620FA06F638BF314383
:10391000A0403C1B1AE7AC421ABF05EA1357AF425E
:1039200012E050EA41061CBF52EA4306BFE750EAE4
:103930004107304661461CBF41EA0551F0BD52EADD
:10394000430C08BFC143F0BD00204FF4001616EB36
:10395000410F98BF16EB430F08BF16EB410F24BF72
:10396000C14305E016EB430F0CBF61464CEA05511D
:10397000F0BD0000400D491840EA81200CD2490DED
:10398000A1F58061491C40F0004005DBD1F11F0129
:1039900054BFC840C017704700207047014648B167
:1039A000B0FA80F18840C91CC1F58461090501EBBA
:1039B000D02140057047000001487047000000001A
:1039C000CC08001491FBF2F303FB1211C0E90031A3
:1039D0007047012000F002B8704700002021090361
:1039E00026311820ABBEF9E73BDF4F8D976E823F43
:1039F000FA7E6ABC7493883FF168E388B5F8043FA7
:103A0000DC050000F40100000F0000001E000000B3
:103A10005000000000000000000000000000000056
:103A20000000000000000000000000000000000096
:103A30000000000000000000000000000000000086
:103A4000000000000000000000000000280000004E
:103A50000000000000000000000000000000000066
:103A60000000000000000000000000000000000056
:103A70000000000000000000000000000000000046
:103A80000000000000000000000000000000000036
:103A90000000000000000000000000000000000026
:103AA0000000000000004E6F6E4D61736B61626C30
:103AB0006500000000486172644661756C74000026
:103AC000000000004D656D4D616E6167656D656E4E
:103AD0007400004275734661756C7400000000004C
:103AE000000055736167654661756C7400000000E5
:103AF00000000000000000000000000000000000C6
:103B000000000000000000000000000000000000B5
:103B100000000000000000000000000000000000A5
:103B200000000000000000000000000000535643A9
:103B3000616C6C00000000000000000044656275CC
:103B4000674D6F6E69746F72000000000000000026
:103B50000000000000000000000050656E64535635
:103B60000000000000000000005379735469636B8B
:103B70000000000000000000444D41300000000043
:103B800000000000000000444D4131000000000032
:103B9000000000000000444D413200000000000021
:103BA0000000000000444D41330000000000000010
:103BB00000000000444D41340000000000000000FF
:103BC000000000444D4135000000000000000000EE
:103BD0000000444D413600000000000000000000DD
:103BE00000444D41370000000000000000000000CC
:103BF000444D413800000000000000000000004477
:103C00004D41390000000000000000000000444D5C
:103C100041313000000000000000000000444D4130
:103C2000313100000000000000000000444D41312F
:103C30003200000000000000000000444D4131331C
:103C400000000000000000000000444D413134003D
:103C5000000000000000000000444D41313500002C
:103C60000000000000000000444D415F4572726F8B
:103C7000720000000000004D434D000000000000F5
:103C80000000000000004654464C00000000000008
:103C90000000000000526561645F436F6C6C6973E3
:103CA000696F6E004C56445F4C5657000000000090
:103CB0000000004C4C570000000000000000000015
:103CC00000005761746368646F67000000000000C3
:103CD00000524E47000000000000000000000000FD
:103CE000493243300000000000000000000000499D
:103CF000324331000000000000000000000053507B
:103D0000493000000000000000000000005350494E
:103D10003100000000000000000000005350493254
:103D2000000000000000000000000043414E305F32
:103D30004F525F4D425F6275660043414E305F42B5
:103D400075735F4F666600000043414E305F4572F9
:103D5000726F72000000000043414E305F54785F84
:103D60005761726E696E6743414E305F52785F579C
:103D700061726E696E6743414E305F57616B655F7C
:103D800055700000005265736572766564353100C8
:103D9000000000005265736572766564353200007C
:103DA00000000043414E315F4F525F4D425F6275EC
:103DB000660043414E315F4275735F4F6666000097
:103DC0000043414E315F4572726F72000000000087
:103DD00043414E315F54785F5761726E696E67433D
:103DE000414E315F52785F5761726E696E67434131
:103DF0004E315F57616B655F55700000005265730F
:103E0000657276656435390000000000526573659F
:103E1000727665643630000000000055415254301F
:103E20005F52585F54580000000055415254305FB3
:103E300045525200000000000055415254315F527B
:103E4000585F54580000000055415254315F4552AC
:103E50005200000000000055415254325F52585F3A
:103E600054580000000055415254325F45525200F0
:103E7000000000000055415254335F52585F5458BF
:103E80000000000055415254335F4552520000007B
:103E900000000055415254345F52585F545800009E
:103EA000000055415254345F45525200000000005A
:103EB0000055415254355F52585F5458000000007D
:103EC00055415254355F45525200000000000041F8
:103ED00044433000000000000000000000004144A6
:103EE00043310000000000000000000000434D507E
:103EF000300000000000000000000000434D503181
:103F00000000000000000000000000434D5032009F
:103F10000000000000000000000046544D3000008A
:103F200000000000000000000046544D3100000079
:103F3000000000000000000046544D320000000068
:103F400000000000000000434D540000000000008D
:103F50000000000000005254430000000000000078
:103F600000000000005265736572766564383300A6
:103F70000000000050495430000000000000000024
:103F80000000005049543100000000000000000013
:103F90000000504954320000000000000000000002
:103FA00000504954330000000000000000000000F1
:103FB00050444230000000000000000000000055A6
:103FC0005342300000000000000000000000555384
:103FD00042444344000000000000000000454E45FC
:103FE000545F313538385F54696D6572454E4554BC
:103FF0005F5472616E736D69740000454E45545F85
:1040000052656365697665000000454E45545F451D
:1040100072726F72000000000049325330000000DD
:10402000000000000000000053444843000000006E
:104030000000000000000044414330000000000088
:104040000000000000004441433100000000000077
:104050000000000000545349300000000000000040
:10406000000000004D434700000000000000000079
:104070000000004C5054696D6572000000000000A3
:10408000000052657365727665643130320000005D
:1040900000504F525441000000000000000000009A
:1040A000504F525442000000000000000000005039
:1040B0004F52544300000000000000000000504F29
:1040C00052544400000000000000000000504F5215
:1040D00054450000000000000000000052657365B8
:1040E0007276656431303800000000526573657285
:1040F0007665643130390000000052657365727670
:104100006564313130000000005265736572766578
:104110006431313100000000526573657276656468
:10412000313132000000005265736572766564318A
:104130003133000000005265736572766564313179
:104140003400000000526573657276656431313564
:104150000000000052657365727665643131360087
:104160000000005265736572766564313137000076
:104170000000526573657276656431313800000065
:104180000052657365727665643131390000000054
:10419000008003400090034000800B4000F00F407F
:1041A00040F00F4080F00F40C0F00F4000F10F4092
:1041B00066000A1D32000701640007106E00040645
:1041C000780004088200040A8C00040C9600040E97
:1041D000A0000410AA000412B4000414BE000416C7
:1041E000C8000418D200041ADC00041CE100041DFD
:1041F000E600041EEB00041FF4000317FA00031886
:10420000130101062C01021400010908009004406A
:1042100000A0044000B0044000C0044000D00440AE
:1042200000A0064000B0064000C0064000D0064096
:1042300000A00E4000B00E40300B0014580B0014CC
:10424000646A666886846782800000003435363789
:104250000DC1110009030CD01240173F185019036B
:104260001A783200A00A63E0ACFF650C66006700B4
:1042700029142C1E2A007E0C7F16802A814E826112
:10428000836F847B8586868E879788A489AF8AC54D
:104290008BD78CE88D204A00491347084B144C17E4
:1042A000460522992303A6049B009CFFAB069E11A2
:1042B0009F020000E86E0000E86E0000E86E00005B
:1042C000E86E0000E86E0000E86E0000E86E000096
:1042D000FFFFFFFFFFFFFFFFEA6E0000E86E000038
:1042E000E86E0000FFFFFFFFFFFF00000204010176
:1042F00028260014782600142826001428260014E6
:1043000000000000282600140000000048090014E6
:10431000340900140000000000000000000000004C
:10432000000000000000000000000000000000008D
:10433000000000002801013100B583B06846DFF8B5
:10434000BC15D1E90023C0E90023012000F052FD93
:104350004042DFF8AC150860DFF8A40500688DF86E
:104360000200052269460320FEF783FF00F00CF8E7
:10437000012000F055FDDFF88C05006850F00100C9
:10438000DFF88015086007BD80B5DFF874050068A8
:1043900000F0F8FDDFF870150860DFF870050068C0
:1043A000DFF864150968884205DADFF860050068FF
:1043B000DFF854150860DFF850050068DFF84C1589
:1043C0000968C84206DADFF8440500684042DFF8B1
:1043D00038150860DFF83005006801280BDB002283
:1043E0000121002000F011FCDFF81C050268022109
:1043F000002000F00AFCDFF81005006800280CD54A
:10440000DFF80405026852420121002000F0FDFBA4
:1044100000220221002000F0F8FB01BD80B5082039
:10442000FEF76FFFDFF8E8140870DFF8E40490F996
:104430000000002840F0D2810020FEF784FFDFF862
:10444000D41408700420FEF75CFFDFF8CC14087069
:104450000520FEF756FFDFF8C41408700720FEF7AA
:1044600050FFDFF8BC140870DFF8A80490F90000D2
:10447000012821D1DFF8A00490F9000000281BD109
:10448000DFF8980490F90000002815D1DFF89004B7
:1044900090F9000000280FD1DFF888040078401C54
:1044A000DFF880140870DFF87C040078052803D159
:1044B0000020DFF870140870DFF8580490F900004D
:1044C000012821D1DFF8500490F9000000281BD109
:1044D000DFF8480490F90000012815D1DFF8400406
:1044E00090F9000000280FD1DFF83C040078401C50
:1044F000DFF834140870DFF830040078042803D1A2
:104500000020DFF824140870DFF80C0490F9000094
:10451000002840F0D480DFF8040490F9000000285F
:1045200040F0CD80DFF8F80390F90000002840F05B
:10453000C680DFF8F0030078002827D1DFF8D40325
:1045400090F9000002280DD1DFF8E003D0E9002344
:10455000DFF8DC03DFF8DC13FCF73CFFDFF8CC23EB
:10456000C2E90001DFF8AC0390F9000003280DD187
:10457000DFF8B803D0E90023DFF8B403DFF8B8139D
:10458000FCF728FFDFF8A423C2E90001DFF8940359
:104590000078012827D1DFF87C0390F90000022879
:1045A0000DD1DFF89803D0E90023DFF89403DFF89A
:1045B0009413FCF70FFFDFF88423C2E90001DFF852
:1045C000540390F9000003280DD1DFF87003D0E9FF
:1045D0000023DFF86C03DFF87013FCF7FBFEDFF855
:1045E0005C23C2E90001DFF83C030078022827D1F0
:1045F000DFF8200390F9000002280DD1DFF84C030A
:10460000D0E90023DFF83803DFF83813FCF7E2FEC7
:10461000DFF83823C2E90001DFF8F80290F9000062
:1046200003280DD1DFF82403D0E90023DFF81003BD
:10463000DFF81413FCF7CEFEDFF81023C2E9000107
:10464000DFF8E0020078032821D1B24890F9000099
:1046500002280DD1DFF8F802D0E90623DFF8E002E6
:10466000DFF8E012FCF7B6FEDFF8E422C2E906014B
:10467000A84890F90000032809D1B548D0E90623DD
:10468000AF48B149FCF7A6FEB14AC2E90601A54808
:104690000078042813D19F4890F90000022804D123
:1046A000AC480068401CAB4908609A4890F900008B
:1046B000032804D1A7480068401EA6490860964810
:1046C00090F90000002840F08980944890F900009B
:1046D000012840F08380924890F9000000287DD1A5
:1046E0009148007800281DD18A4890F900000228DE
:1046F00009D19948D0E9022398489949FCF76AFE04
:10470000954AC2E90201834890F90000032809D1C3
:104710009148D0E9022391489249FCF75BFE8E4A0A
:10472000C2E902018048007801281DD1794890F93A
:104730000000022809D18848D0E904238048814933
:10474000FCF748FE844AC2E90401724890F900006F
:10475000032809D18048D0E9042379487A49FCF735
:1047600039FE7D4AC2E904016F48007802281DD154
:10477000684890F90000022809D17748D0E906235B
:1047800076487749FCF726FE734AC2E9060161487C
:1047900090F90000032809D16F48D0E906236F483B
:1047A0007049FCF717FE6C4AC2E906015E480078C2
:1047B000032813D1574890F90000022804D1664815
:1047C0000068401C64490860524890F900000328C2
:1047D00004D161480068401E5F4908606248006873
:1047E00044F62061884204DA5F4800685F498842E5
:1047F00014DA5248D0E90001554AD2E9022300F008
:1048000023FC11D85248D0E902234848D0E90001DE
:10481000FCF7E0FD4E4AC2E9020105E04C484B4975
:1048200091ED000B80ED020B4F48006800F05DFB3E
:1048300000F2DC504E4908604D48006840F26D714E
:10484000884203DB40F23A704949086048480068F2
:1048500040F24C41884203DA40F27E40444908600D
:10486000434802680021022000F0CFF901BD70B575
:10487000274890F90000002837D10020040024B216
:104880003C2C1ADA002005002DB2502D13DA3948DD
:10489000502114FB01F108442DB2405D06003000A8
:1048A0000200D2B2D4F13C01C9B22800C0B2FCF778
:1048B000C4FF6D1CE8E7641CE1E73C20040024B25F
:1048C000012C0DDB0022D4F13C01C9B22A4824B2EC
:1048D0006342184490F83C00FCF7AFFF641EEEE71B
:1048E000FCF7EBFFFCF79AFB05E0022302A2032191
:1048F0002520FDF7A9F870BD52756E00D06E00003E
:10490000840B00140C710340800B00141C00001475
:104910007E2600147A2600147B2600147C260014C0
:104920007D26001478260014792600141000001447
:104930008DEDB5A0F7C6B03EF7C6B0BE08000014B6
:10494000FCA9F1D24D62503F4D6250BF00000014EF
:10495000300B001420000014580B00147B14AE47D9
:10496000E17A843FE17A84BF8C0B0014E1B1FFFF50
:1049700018000014540F00146400001438B504002B
:104980000D0064B2002C03D0022C66D049D380E025
:10499000DFF8B404006850F08070DFF8AC140860F1
:1049A0006DB2002D0BD0022D15D00ED3042D1ED0CC
:1049B00017D3062D27D020D3072D2AD02FE04FF470
:1049C00080614120FDF7FAFB2AE04FF4407104209A
:1049D000FDF7F4FB24E04FF440710520FDF7EEFBFA
:1049E0001EE04FF440710620FDF7E8FB18E04FF49D
:1049F00040710720FDF7E2FB12E04FF48061652073
:104A0000FDF7DCFB0CE04FF480616620FDF7D6FB80
:104A100006E04FF480616720FDF7D0FB00E038E04E
:104A200037E0DFF82404006850F00070DFF8181455
:104A300008606DB2002D02D0012D06D00BE04FF4BE
:104A400040710C20FDF7BAFB06E04FF440710D20D9
:104A5000FDF7B4FB00E01CE01BE0DFF8F0030068AA
:104A600050F08070DFF8E41308606DB2002D02D0C2
:104A7000012D06D00BE04FF440710A20FDF79EFB9C
:104A800006E04FF440710B20FDF798FB00E000E0DA
:104A9000FFE731BD2DE9F84F04000D0016001F009F
:104AA00064B2002C0DD064B2012C02D064B2022C8E
:104AB00002D16DB2022D04DBFC21DFF89403FDF777
:104AC000EAFB290049B2200040B2FFF757FFDFF8A8
:104AD000840300684FF47A71484380465FEA1840C7
:104AE000B0FBF6F08146002082461FFA89F959FA98
:104AF0000AF0012802DB1AF1010AF6E75FFA8AFAE6
:104B0000BAF1080F05DB40F21711DFF84403FDF797
:104B1000C2FB38FA0AF0B0FBF6F0814664B2002C12
:104B200003D0022C17D00BD320E01FFA89F919F11A
:104B3000010000FB07F06421B0FBF1F0834615E0B3
:104B40001FFA89F919F1010000FB07F06421B0FB9D
:104B5000F1F083460AE01FFA89F919F1010000FB20
:104B600007F06421B0FBF1F08346FFE7DFF8E802CD
:104B700064B250F824006DB210EBC500DFF8D81213
:104B800064B251F824106DB211EBC501C96831F05F
:104B90000401C160DFF8C00264B250F824006DB2B5
:104BA00010EBC5002821C1605FFA8AFA1AF00700ED
:104BB00050F00800DFF8A01264B251F82410086029
:104BC0001FFA89F9DFF8900264B250F82400C0F8A7
:104BD00008900020DFF8801264B251F82410C864F5
:104BE000DFF8740264B250F824006DB210EBC50017
:104BF0001FFA8BFBC0F810B00020DFF85C1264B223
:104C000051F824104860BDE8F18F2DE9F04104000F
:104C10000D0016005FF0000864B2002C0ED064B2E4
:104C2000012C02D064B2022C02D16DB2022D05DB40
:104C30004FF4A971DFF81802FDF72DFB64B2002CC8
:104C400003D0022C13D009D31AE0652E05D340F20D
:104C50005711DFF8FC01FDF71EFB11E0652E05D3AF
:104C600040F25B11DFF8E801FDF715FB08E0652E67
:104C700005D340F25F11DFF8D801FDF70CFBFFE729
:104C8000DFF8D40164B250F8240080688046B8F19F
:104C9000000FF5D064B2002C03D0022C13D009D33E
:104CA0001AE018F1010000FB06F06421B0FBF1F0FE
:104CB000070011E018F1010000FB06F06421B0FBD1
:104CC000F1F0070008E018F1010000FB06F0642194
:104CD000B0FBF1F00700FFE7DFF87C0164B250F8A9
:104CE00024006DB210EBC5000761BDE8F08110B57E
:104CF000040064B2012C07D064B2022C04D040F24C
:104D00001D215348FDF7C7FA64B22000012802D0E4
:104D1000022811D021E04C48006850F000704A4948
:104D200008604FF4E0610C20FDF748FA4FF4E061B1
:104D30000D20FDF743FA15E04448006850F08070FC
:104D4000424908604FF4C0610A20FDF737FA4FF47A
:104D5000C0610B20FDF732FA04E040F265213C48C7
:104D6000FDF799FA3C4864B250F82400406D50F0C9
:104D70000400394964B251F824104865364864B2D9
:104D800050F82400D0F8800050F00800324964B296
:104D900051F82410C1F8800000202F4964B251F866
:104DA0002410C8644FF6FF702B4964B251F82410E8
:104DB0008860294864B250F82400D0F8800050F090
:104DC0000100254964B251F82410C1F8800022483E
:104DD00064B250F82400406D50F001001E4964B2E6
:104DE00051F82410486500201B4964B251F8241082
:104DF000486010BD38B5040064B2012C07D064B21D
:104E0000022C04D040F282211148FDF744FA1248E6
:104E100064B250F8240040680500280000B232BD9A
:104E200010B5040064B2012C07D064B2022C04D087
:104E30004FF424710648FDF72EFA0020064964B2AB
:104E400051F82410486010BD3C800440308004407C
:104E5000346B00001C260014A807001400207049C1
:104E60000968486000206E490968086200206C49A2
:104E7000096848626A4800686A4A6B4BC0E90223C5
:104E80006748006800220023C0E9042364480068E2
:104E9000664A674BC0E9062300206149096808603B
:104EA000704700206349096848600020614909682B
:104EB000086200205F49096848625E480068002275
:104EC0005D4BC0E902235B4800685C4A5C4BC0E96B
:104ED0000423584800685FF033325A4BC0E9062378
:104EE000142054490968086070472DE9F0412DED00
:104EF000048B06004A4909680968891B080048496B
:104F0000096849684118464A12685160444909686D
:104F1000096A411A0F004249096808624049096854
:104F200091ED028B3E49096891ED049B3C4909686B
:104F3000D1F8048000F0A0F853EC182BFCF7D4FE55
:104F400004000D00404600F097F853EC192BFCF7D5
:104F5000CBFE22002B00FCF73DFA04000D003800C8
:104F600000F08AF82E4A1268D2E90623FCF7BCFE4C
:104F700022002B00FCF72EFA00F090F8BDEC048B19
:104F8000BDE8F0812DE9F0412DED048B06002949A3
:104F900009680968891B0800264909684968411899
:104FA000244A1268516023490968096A411A0F00AE
:104FB0002049096808621F49096891ED028B1D4963
:104FC000096891ED049B1B490968D1F8048000F041
:104FD00053F853EC182BFCF787FE04000D004046F5
:104FE00000F04AF853EC192BFCF77EFE22002B0050
:104FF000FCF7F0F904000D00380000F03DF80D4A10
:105000001268D2E90623FCF76FFE22002B00FCF7A2
:10501000E1F900F043F8BDEC048BBDE8F08100003D
:10502000500800143BDF4F8D976E823FFCA9F1D2F0
:105030004D62803F540800140000E03F7B14AE47EF
:10504000E17A743F3333C33F4FF4001C1CEB410F34
:1050500094BF1CEB430F09E041EA030C50EA4C0CEF
:1050600052EA0C0C03D28B4208BF8242704714BF35
:105070009942904270470000C11768B14840401AF9
:10508000B0FA80F29040D21CC907C2F5846241EAAE
:10509000025202EBD021400570470000C1F30A53D1
:1050A00040F2FE329B1A14DDD3F120034FEAE17285
:1050B00008DDC90241EA505141F00040D840801853
:1050C0005040704703F2E13010B1D24382F000400B
:1050D0007047002070470000000000000000000042
:1050E0000000000000000000000000F800000000C8
:1050F000000000333000000000100C06100C060009
:10510000000000000000000040C07840C07840006F
:10511000043F04043F040400007088FC08300000D1
:10512000001820FF211E0000F008F000E018000029
:1051300000211C031E211E0000F0088870000000E2
:105140001E2123241927211010160E000000000034
:105150000000000000000000000000E01804020051
:10516000000000071820400000020418E0000000C2
:105170000040201807000000404080F080404000C0
:105180000202010F01020200000000F00000000016
:105190000101011F010101000000000000000000EA
:1051A00080B070000000000000000000000000005F
:1051B00000010101010101010000000000000000E8
:1051C0000030300000000000000000008060180483
:1051D000006018060100000000E010080810E00060
:1051E000000F102020100F00001010F80000000029
:1051F0000020203F20200000007008080888700070
:1052000000302824222130000030088888483000EF
:105210000018202020110E000000C02010F800000F
:1052200000070424243F240000F8088888080800A8
:105230000019212020110E0000E0108888180000BD
:10524000000F112020110E0000380808C83808008F
:105250000000003F0000000000708808088870000F
:10526000001C222121221C0000E010080810E00090
:105270000000312222110F00000000C0C000000019
:10528000000000303000000000000080000000003E
:105290000000806000000000000080402010080036
:1052A00000010204081020004040404040404000FF
:1052B00004040404040404000008102040800000DA
:1052C0000020100804020100007048080808F000DF
:1052D0000000003036010000C030C828E810E000AF
:1052E0000718272423140B000000C038E00000003A
:1052F000203C23020227382008F8888888700000A4
:10530000203F202020110E00C03008080808380077
:10531000071820202010080008F808080810E000EE
:10532000203F202020100F0008F88888E80810008F
:10533000203F20202320180008F88888E808100063
:10534000203F200003000000C0300808083800009B
:1053500007182020221E020008F808000008F8089C
:10536000203F210101213F20000808F80808000023
:105370000020203F2020000000000808F808080056
:10538000C08080807F00000008F888C028180800CE
:10539000203F20012638200008F808000000000007
:1053A000203F20202020300008F8F800F8F80800FE
:1053B000203F003F003F200008F830C00008F808F8
:1053C000203F200007183F00E01008080810E00008
:1053D0000F10202020100F0008F808080808F0001F
:1053E000203F210101010000E01008080810E00042
:1053F0000F18242438504F0008F8888888887000D7
:10540000203F2000030C3020007088080808380076
:105410000038202121221C00180808F8080818006C
:105420000000203F2000000008F808000008F808ED
:10543000001F202020201F000878880000C838089E
:10544000000007380E010000F80800F80008F80016
:10545000033C0700073C03000818688080681808B0
:1054600020302C03032C30200838C800C83808002E
:105470000000203F2000000010080808C83808007D
:105480002038262120201800000000FE0202020021
:105490000000007F40404000000C30C000000000D1
:1054A000000000010638C00000020202FE000000F9
:1054B000004040407F00000000000402020204009F
:1054C00000000000000000000000000000000000DC
:1054D00080808080808080800002020400000000C4
:1054E00000000000000000000000808080800000BC
:1054F0000019242222223F2008F8008080000000AA
:10550000003F112020110E0000000080808000006C
:10551000000E112020201100000000808088F8007B
:10552000000E112020103F200000808080800000AD
:10553000001F222222221300008080F08888881811
:105540000020203F2020000000008080808080001C
:10555000006B94949493600008F8008080800000B1
:10556000203F210000203F2000809898000000008C
:105570000020203F202000000000008098980000BC
:1055800000C08080807F000008F8000080808000DC
:10559000203F24022D302000000808F80000000001
:1055A0000020203F202000008080808080808000BC
:1055B000203F20003F20003F80800080808000004E
:1055C000203F210000203F200000808080800000DC
:1055D000001F202020201F0080800080800000000D
:1055E00080FFA12020110E0000000080808080003C
:1055F000000E112020A0FF8080808000808080002D
:1056000020203F2120000100000080808080800059
:105610000033242424241900008080E080800000CE
:105620000000001F2020000080800000008080001B
:10563000001F202020103F2080808000008080807C
:1056400000010E300806010080800080008080800C
:105650000F300C030C300F00008080008080800031
:105660000020312E0E31200080808000008080805C
:1056700080818E701806010000808080808080000C
:105680000021302C2221300000000000807C02022A
:1056900000000000003F404000000000FF0000004C
:1056A00000000000FF0000000002027C80000000FB
:1056B0000040403F00000000000601010202040417
:1056C0000000000000000000DFF800F0E10A001414
:1056D000DFF8981340B231F8201040B20128C0F230
:1056E0006A8140B2162880F266810022DFF880339A
:1056F0001A7089B23D2904DA0022DFF874335A7037
:1057000077E089B2792904DA0122DFF864335A702C
:105710006FE089B2B52904DA0222DFF854335A70F7
:1057200067E089B2F12904DA0322DFF844335A70C2
:105730005FE089B2B1F5967F04DC0422DFF83033F4
:105740005A7056E089B2B1F5B47F04DC0522DFF867
:1057500020335A704DE089B2B1F5D27F04DC0622C5
:10576000DFF80C335A7044E089B2B1F5F07F04DC05
:105770000722DFF8FC325A703BE089B2B1F5077FAF
:1057800004DC0822DFF8E8325A7032E089B2B1F561
:10579000167F03DC0922B64B5A702AE089B2B1F5B4
:1057A000257F03DC0A22B24B5A7022E089B2B1F5A0
:1057B000347F03DC0B22AE4B5A701AE089B2B1F58C
:1057C000437F03DC0C22AA4B5A7012E089B2B1F578
:1057D000527F03DC0D22A64B5A700AE089B2B1F564
:1057E000617F03DC0E22A24B5A7002E00F22A04B15
:1057F0005A7089B21A2903DA00229D4B9A7069E027
:1058000089B2332903DA0122994B9A7062E089B296
:105810004C2903DA0222964B9A705BE089B2652923
:1058200003DA0322924B9A7054E089B27E2903DA9C
:1058300004228F4B9A704DE089B2972903DA052232
:105840008B4B9A7046E089B2B02903DA0622884B66
:105850009A703FE089B2C92903DA0722844B9A7013
:1058600038E089B2E22903DA0822814B9A7031E0EC
:1058700089B2FB2903DA09227D4B9A702AE089B2AA
:10588000B1F58A7F03DA0A22794B9A7022E089B255
:10589000B1F5967F03DC0B22754B9A701AE089B242
:1058A000B1F5A37F03DA0C22714B9A7012E089B232
:1058B000B1F5AF7F03DC0D226D4B9A700AE089B21F
:1058C000B1F5BC7F03DA0E22694B9A7002E00F2219
:1058D000674B9A7089B21A2903DA0022644BDA7096
:1058E00069E089B2332903DA0122614BDA7062E0A0
:1058F00089B24C2903DA02225D4BDA705BE089B28F
:10590000652903DA03225A4BDA7054E089B27E2902
:1059100003DA0422564BDA704DE089B2972903DA94
:105920000522534BDA7046E089B2B02903DA062229
:105930004F4BDA703FE089B2C92903DA07224C4B9A
:10594000DA7038E089B2E22903DA0822484BDA70CB
:1059500031E089B2FB2903DA0922454BDA702AE0EB
:1059600089B2B1F58A7F03DA0A22414BDA7022E06C
:1059700089B2B1F5967F03DC0B223D4BDA701AE059
:1059800089B2B1F5A37F03DA0C22394BDA7012E049
:1059900089B2B1F5AF7F03DC0D22354BDA700AE036
:1059A00089B2B1F5BC7F03DA0E22314BDA7002E026
:1059B0000F222F4BDA70704710B50400200040B260
:1059C000FFF786FE2B48007810F0FD00294908708B
:1059D0002848007850F0100026490870B820264961
:1059E000087026480078C006FBD424480078C0F32D
:1059F0008100C0B20228F8D11D48C3781C488278C3
:105A00001B4841781A480078FFF75EFE174864B2D9
:105A100010EB8400807810F00700194908701348D3
:105A200064B210EB8400C07810F01F0050F040000A
:105A300014490870114800788006FBD50F4800789B
:105A40004006FBD50C48007810F03F000A4908706A
:105A50000A480078C0F38100C0B20328F8D1034897
:105A600064B230F82400C0B210BD0000C8070014B2
:105A70002008001401400640004006400640064051
:105A8000044006400540064001B4BDF8000000286F
:105A900005D0BDF80000401EADF80000F5E701B0EC
:105AA000704780B5012201211A20FCF75DFA01221E
:105AB00001211920FCF758FA23211A20FCF7A0FB3A
:105AC00023211920FCF79CFB01BD80B501207A49F8
:105AD00008600120794908604FF4C870FFF7D4FFCF
:105AE00000207749086077480068002804D1012029
:105AF00073490860002016E0012071490860002009
:105B00006D4908604FF4C870FFF7BEFF00206B4975
:105B100008606C480068002804D0012068490860CB
:105B2000002000E0012002BD80B50020634908602C
:105B30000020614908604FF4C870FFF7A5FF0120FD
:105B40005E4908604FF4C870FFF79EFF01205A4974
:105B500008604FF4C870FFF797FF01BD80B50020C3
:105B6000564908604FF4C870FFF78EFF0020524975
:105B700008604FF4C870FFF787FF01204F490860A5
:105B80004FF4C870FFF780FF00204C4908604FF4C5
:105B9000C870FFF779FF01BD80B500204749086054
:105BA0004FF4C870FFF770FF0120434908604FF4BD
:105BB000C870FFF769FF0120404908604FF4C870C2
:105BC000FFF762FF00203D4908604FF4C870FFF7FF
:105BD0005BFF01BD80B500203849086000203849CE
:105BE00008604FF4C870FFF74FFF01203349086089
:105BF0004FF4C870FFF748FF32480068002807D00C
:105C000001202F49086000202C490860002006E090
:105C100001202B490860002028490860012002BDAE
:105C200038B5050008242000441EC0B2002818D052
:105C3000280603D501202049086002E000201E4903
:105C400008606D004FF4C870FFF71EFF01201B496C
:105C500008604FF4C870FFF717FF0020174908606D
:105C6000E1E731BD38B5082400250020144908605B
:105C70002000441EC0B2002815D06D0000200F493E
:105C800008604FF4C870FFF7FFFE01200B49086061
:105C90004FF4C870FFF7F8FE0A4800680028E7D004
:105CA00055F00105E4E7012005490860002003499B
:105CB0000860EDB2280032BD6400FE436800FE4378
:105CC000E402FE436402FE4370B504000D000026AA
:105CD0002900C9B2200080B200F00AF8002805D1DE
:105CE000761CF6B2142EF3D1002000E0012070BD26
:105CF00038B504000D00FFF7E8FE002801D10020B0
:105D000019E04220FFF78CFFFFF764FF002803D162
:105D1000FFF70AFF00200EE02000C0B2FFF780FF6F
:105D2000FFF758FF2800C0B2FFF77AFFFFF752FFD6
:105D3000FFF7FAFE012032BDF8B504000D00160091
:105D400000273200D2B2290089B2200000F00AF800
:105D5000002805D17F1CFFB21E2FF2D1002000E0E9
:105D60000120F2BD70B504000D001600FFF7ADFE76
:105D7000002801D1002037E04220FFF751FFFFF754
:105D800029FF002803D1FFF7CFFE00202CE03000D0
:105D9000C0B2FFF745FFFFF71DFFFFF7C5FEFFF796
:105DA00094FE002801D100201EE04320FFF738FFB9
:105DB000FFF710FF002803D1FFF7B6FE002013E025
:105DC000ADB2002D0DD0FFF74DFF2070ADB2012D0B
:105DD00002D1FFF7E1FE01E0FFF7C0FE641C6D1E7B
:105DE000EEE7FFF7A1FE012070BD00002DE9F843AA
:105DF00080460C005FEA981010F00700C0B25FEA1E
:105E000040194046103810F03F00C0B2C0000500F5
:105E100015EB09000700E4B217EBC400401E0600B2
:105E2000F6B2FFB2BE420DD3002200213800C0B24C
:105E3000FCF79AF84FF481713800C0B2FCF7BEF954
:105E40007F1CEDE7BDE8F1832DE9F84F04000D005C
:105E500016001F009DF92880DDF82C90DDF830A099
:105E60004FFA88F8B8F1000F02D15FF0010B11E092
:105E70004FFA88F8B8F1010F02D15FF0020B09E088
:105E80004FFA88F8B8F1020F02D15FF0040B01E07D
